:10000000FC7F0020710500005D0500006105000017
:1000100000000000000000000000000000000000E0
:100020000000000000000000000000006505000066
:100030000000000000000000690500006D050000E0
:1000400010B5064C2378002B07D1054B002B02D0AE
:10005000044800E000BF0123237010BD58000020B9
:10006000000000003015000008B5084B002B03D03D
:100070000748084900E000BF07480368002B03D089
:10008000064B002B00D0984708BDC046000000007A
:10009000301500005C00002054000020000000002B
:1000A000F8B5041C03689A8B11072DD508229A8392
:1000B00080229A7211208021490058544020062144
:1000C000FF315854822149005A54144A5768144E3B
:1000D0003740C025AD052F43576057693E40354333
:1000E0005561104D1560104D156156680F4D354026
:1000F0008026B602354355605568AD0BAD0355609B
:1001000058540023237106E00822FF329B5CDA0674
:1001100001D500F0CBFA2079F8BDC0468C01002053
:10012000FFFFFF8F8C0000200C010020FF3F00F03C
:100130000160002303714371034B83600A7802233B
:1001400013430B707047C046A100000010B5394B37
:10015000D96920220A43DA61374B5822995C012081
:10016000014399543C22995C0F24A14399549C5C0F
:1001700006212143995459215C5C20435854985CD2
:100180000F2101409954985C6021014399542B4AF6
:100190002B4B5A801A1C53785BB2002BFBDB294B8C
:1001A000197801220A431A70191C01228B781A420D
:1001B000FCD1254B1B689B03DB0E1F2B00D10523B5
:1001C000204A9901108D214B03400B4313851E4B90
:1001D0001B685B02DB0E1F2B00D11D23194A118DFA
:1001E0001F2081430B431385174B1A689201520F4E
:1001F000072A00D10322134B1103188D144A024021
:100200000A431A851A787F210A401A701978042245
:100210000A431A700F4858621A890C218A431A81BE
:100220001A8901218A431A810021802201F01DF8D8
:1002300010BDC046000400400044004106400000DC
:10024000000C004000500041246080003FF8FFFF98
:10025000FF8FFFFF8C010020F0B5474680B4041CDF
:10026000171C1E1C1D1C5B01224AD31810335B682F
:100270005B005B0F033301229A40BA4208D8730136
:100280001C4AD31858698022120602435A610BE0B7
:10029000321C531E9A419201174BD2189046101CE3
:1002A0003A1C00F0D9FF41467301124AD218131CC0
:1002B0001161B904890C5269920B92030A435A6185
:1002C00059690E4A0A405A6108367601A619022376
:1002D000F371727980235B421343737108356D01AA
:1002E00001216319DB795B081942FAD0381C04BC80
:1002F0009046F0BD8C0100200C010020FF3F00F073
:1003000038B5051C141C1B4B1B78002B13D11A4B42
:100310001A4A1A645A6C920B92035A64586C184A1F
:1003200002405A64A2235B00E85C40220243EA5484
:100330000122104B1A704823FF33EB5CDA0716D505
:100340000D4B5B6C9B049B0CA34203D20A4B5C6C71
:10035000A404A40C081C0949221C00F07DFF012202
:100360004823FF33EA540022024B1A7000E00024B5
:10037000201C38BD740000208C010020CC0000201F
:10038000FF3F00F0002906D00623FF33C15C202286
:100390000A43C25405E00623FF33C15C10220A431E
:1003A000C25470470B4B5A69920B92035A61022256
:1003B0000823FF33C2540623FF33C15C802252421C
:1003C0000A43C2540821FF310122435C5B081A42F0
:1003D000FBD070478C01002080235B421943C9B2D7
:1003E0008172704770B50322A0235B00C254134B87
:1003F0005C6C134A1440C02189050C435C644024A2
:100400004625FF3544550F4D1D64302690256D005F
:1004100046555D6B154029435963802192256D0037
:100420004155094D1D63B0256D0044555C6F224058
:100430005A67B2235B00C15470BDC0468C010020D6
:10044000FFFFFF8FCC0000204C0100208023DB0148
:10045000184380B2224B58801A1C53785BB2002B91
:10046000FBDB204B9A8C80218A439A84191C102232
:10047000CB681A42FCD01B4B996A1B4A0A40F821F0
:10048000C9010A439A62996A890A89028022920004
:100490000A439A62154ADA62191C1022CB681A4282
:1004A000FCD0104B998C124A0A439A84191C1022D2
:1004B000CB681A42FCD00B4B998C02220A439A84D7
:1004C0001A1C80214020D3681942FCD0D3681842FE
:1004D000F9D004491022CB681A42FCD07047C046BC
:1004E000000C004000080040FF03FFFFB90540205A
:1004F000040A00000022084B9A601A1C53785BB271
:10050000002BFBDB054A044B5A601A1C53785BB284
:10051000002BFBDB7047C046000C004000070300C7
:1005200010B50C4B5A681E218A4302210A435A60B7
:10053000094CA26908231343A36180208000FFF7C0
:1005400085FFFFF7D7FF002323726372A372E37264
:1005500010BDC04600400041000400400EBEFEE752
:100560000DBEFEE705BEFEE702BEFEE701BEFEE7EA
:1005700010B5184B184A9A4216D0131C174A9A42C3
:1005800012D0144B144A9A420ED2154B1148033024
:10059000C01A8008013080000023111C0F4AD45873
:1005A000CC5004338342FAD10E4B0F4A9A420DD0FD
:1005B0000CD20E4B0B490331C91A8908013189004D
:1005C000043BC918002204C38B42FCD100F010F890
:1005D000FEE7C0465800002000000020341500004F
:1005E0000400002090020020580000205C00002041
:1005F00070B5254B1B6801332ED0244A244B1A605A
:10060000043AFF231A4227D138232249CB5CD90769
:1006100003D50021204B196012E01F4B19681F4BB6
:10062000994203D100221C4B1A6015E01B491A4B5A
:1006300019601B4B013B002BFCD10021164B1960AC
:10064000114B1B6883F30888FF239A43154B9A606C
:100650000F4B1B681B681847FFF762FF62B600F07C
:1006600037FA041C0126104D201CA3689847002867
:1006700001D00D490E702B78002BF5D0002000F032
:10068000A9FA00F009FBFCE70020000004200000AC
:100690000C02002000040040FC7F0020358173071D
:1006A00048E8010000ED00E075000020F8B5061CE8
:1006B000046810220823FF33E254A94B1A78A94D8D
:1006C0002A705A78A8490A709878A84A1080178822
:1006D000D8780002384310801879A54A108017880E
:1006E00058790002384310809879A24A1080108807
:1006F000DB791B0203431380402282235B00E25418
:100700000B782A781B0213439B4A934200D1E7E0FF
:1007100026DC80225200934200D117E18022520051
:10072000934209DC812B00D193E0822B00D198E029
:10073000802B00D0BCE184E081225200934200D1A2
:100740002EE181225200934200DA04E1C02292009D
:10075000934200D1BBE0894A934200D1BCE0A7E1BB
:100760009022120193425BD09022120193420DDC41
:10077000D022D20093421CD088221201934259D039
:10078000A022D200934200D092E13FE07C4A934203
:1007900000D173E104DC7B4A934200D1D6E087E1CB
:1007A000794A934200D16DE1784A934200D178E1D1
:1007B0007EE16E4B1B881B0A012B0ED130686D4BFE
:1007C0001B889BB21222122B02D86A4B1A8892B253
:1007D0006F490023FFF740FD6EE1644B1B881B0A45
:1007E000022B0ED13068634B1B889BB24322432BF4
:1007F00002D8604B1A8892B266490023FFF72CFD9D
:100800005AE1201C0121FFF7BDFD55E1201CFFF737
:10081000C9FD564B198889B23068FFF7DDFD4BE101
:10082000524B1B883371201CFFF7BCFD201CFFF7C7
:10083000D9FD41E1311C01C901220023FFF70CFD64
:100840003AE1554900230B8030680222FFF704FD8E
:1008500032E1514900230B8030680222FFF7FCFC93
:100860002AE100224C4B1A80414B1988502211403A
:100870004A4A117019880F220A401A801B889BB2BD
:10088000032B1FD8454B1B78002B0AD0384B1B88F5
:1008900008335B01E418A2799206D20F3E4B1A800E
:1008A00009E0334B1B8808335B01E418A279D206B8
:1008B000D20F394B1A803068374902220023FFF7E4
:1008C000CBFCF9E0201C0121FFF75CFDF4E0201CCB
:1008D0000121FFF757FDEFE0201CFFF763FDEBE080
:1008E000234B19887F229143C9B22C4A1170198871
:1008F0000F220A401A801D4B1B889BB2002B20D16F
:100900001B4B1B889BB2002B1BD0194B1B889BB227
:10091000032B16D8214B1B78002B07D0144B1B88B8
:1009200008335B01E31820225A7106E0104B1B8844
:1009300008335B01E31810225A71201CFFF732FDC7
:10094000BAE0201C0121FFF71DFDB5E0201C0121AC
:10095000FFF718FDB0E0201CFFF724FDACE0C04617
:100960008C00002077000020780000207A00002012
:100970007E00002080000020020300000103000030
:1009800021200000010B0000A12100002122000015
:1009900094120000000000207C000020760000205F
:1009A000464B19887F229143C9B2454A1170198874
:1009B0000F220A401A80434B1B889BB2002B58D150
:1009C0003E4B1B889BB2002B53D03C4B1B889BB2E9
:1009D000032B4ED83A4B1B78002B23D0374B1B8868
:1009E00008335B01E3189B799A063ED5334B1A888E
:1009F00008325201A218202111711B8808335B01B3
:100A0000E318DB795A0630D52C4B1A88083252018C
:100A1000A2184021D1711B8808335B01E318022220
:100A20001A7122E0254B1B8808335B01E3189B7980
:100A3000DA061AD5214B1A8808325201A218102161
:100A400011711B8808335B01E318DB799A060CD51A
:100A50001A4B1A8808325201A2182021D1711B8822
:100A600008335B01E31801221A71201CFFF79AFC7E
:100A700022E0201C0121FFF785FC1DE0201CFFF770
:100A800091FC19E03068104B1B889BB20822082BA0
:100A900002D80D4B1A8892B20C490023FFF7DCFBF9
:100AA0000AE0084B1B887371201CFFF77BFC03E0F6
:100AB000201C0121FFF766FCF8BDC0467E00002027
:100AC000760000207A0000208000002044000020F2
:100AD00010B5054C054B2360FFF738FB201C21683F
:100AE000FFF726FB201C10BD100200200050004123
:100AF00000B583B00190054B186801A901220123BC
:100B0000FFF7AAFB012003B000BDC0461002002081
:100B100010B582B0054B18686C460734211C0122C1
:100B2000FFF7EEFB207802B010BDC0461002002097
:100B300008B50748FFF7B4FA031C0020002B06D0C5
:100B4000034B1A684823FF33D35C0120184008BDCB
:100B50001002002010B5031C0C1C044A1068191C5C
:100B6000221C0123FFF778FB201C10BD100200207F
:100B700038B5051C0C1C0748FFF792FA0023002823
:100B800006D0044B1868291C221CFFF7B9FB031C74
:100B9000181C38BD10020020F8B5051C0F1C0C48AD
:100BA000FFF77EFA0023002810D0002F0BD03C1C4A
:100BB000074E3068291C221CFFF7A2FB241A2D18AF
:100BC000002CF6D101E03B1C00E03B1C181CF8BDDA
:100BD00010020020002802D1014A024B1A6070471F
:100BE0000413000080020020F0B585B0214B1B7873
:100BF000002B2FD0042901D1036830E0022901D154
:100C000003882CE003784D0004A842190B3A002D0C
:100C100029D10DE0341C1C40092C02D83C4314702F
:100C200001E0373414701B09013A0130A842F1D3B6
:100C300001A83023037078234370013149000A234F
:100C4000435445190D23EB700B4B1B680231DB68D5
:100C500098470CE0084B1B68DB68984707E04D009D
:100C600004A842190B3A00200F263027D2E705B01E
:100C7000F0BDC046880000208002002072B6EFF36D
:100C80000883044A1360036883F30888436818479D
:100C90007047C04684020020F0B55F4656464D4678
:100CA0004446F0B48DB004A9C14A0B1C31CA31C30B
:100CB00091CA91C3A0CAA0C3BE4A93685B035B0FED
:100CC0009B005B58BC490B60926892B2BB490A60BA
:100CD0005343BB490B60BB4B00221A607A22BA4BCC
:100CE0001A70BA488346BA4C01340194B94C5D4637
:100CF0002B681B69201C40219847B74B1860B74BE5
:100D00001C600022B64B1A600028EFD0B34C276855
:100D10003B78FF2B00D149E2232B00D017E2B14BE7
:100D20001B78002B05D0A94B1B68DB68AE4802215D
:100D30009847A54B1B78532B3ED1A74B1B68A84A5D
:100D40001268934221D9A54801680131016001323E
:100D5000A34802609A1AA54B1868824202D2A44B9B
:100D60001A6001E0A24B1860964B1868A04D2A68E3
:100D700000F072FA2B689A4A106819181160974AA5
:100D80001568E91811609B4A1370954B1A68013A6F
:100D90001A60924B1A68013A1A60964B1B78934A74
:100DA00011688B4206D2894A126886480068C91ABF
:100DB00092699047C046B9E1522B08D1834B1B681A
:100DC000804A1068894A11685B699847AEE14F2BE9
:100DD00005D17C4B1B68854A12681A70A6E1482B26
:100DE00005D1784B1B68814A12681A809EE1572B07
:100DF00005D1744B1B687D4A12681A6096E16F2B0F
:100E000005D1704B18680121FFF7EEFE8EE1682BCB
:100E100008D176486B4B1B681B8803600221FFF7E3
:100E2000E3FE83E1772B08D1664B1B681B686F4894
:100E300003600421FFF7D8FE78E1472B13D16B4BF9
:100E40001868FFF71BFF6C4B1B6883F3088862B6BA
:100E50006A4B1B78002B00D168E15C4B1B681B6858
:100E60000620984762E1542B09D101225D4B1A708C
:100E7000564B1B68DB685C480221984756E14E2BB5
:100E80000DD1584B1B78002B05D1504B1B68DB68EC
:100E90005548022198470022524B1A7046E1562BC2
:100EA00058D14A4D2B68DB685548012198472B687B
:100EB000DB685448032198472B68534EDB68301C8D
:100EC000012198472B68DB6850480D2198472B6813
:100ED000DB68301C012198470022414B1A603F4BD0
:100EE000019F1F603A4D2B78002B00D16CE13C49EB
:100EF0003A4A0B6801330B601368581C10601B786A
:100F0000002BF6D1314E3368354DDB683048296807
:100F100098473368DB683C480121984700232B60E1
:100F20003B4A2E4B1A6060E10B6801330B6013687B
:100F3000581C10601B78002BF6D1244D2B68284AD2
:100F40001168DB68334898472B68DB682648022124
:100F50009847EBE0582B1FD1244B1868184B1B689F
:100F6000984212D2134A2C4FBC460121124E144D06
:100F70004308D36163461380137D1942FCD0376860
:100F8000BB00C0182B689842F2D3104B1B68DB687B
:100F9000224803219847C9E0592B00D08DE0134B1C
:100FA0001E68002E3ED1074B1A681D4B1A607DE06B
:100FB000A81200000040004138020020300200204A
:100FC0002C0200207C020020280200208002002049
:100FD000D81200003C020020200200202402002041
:100FE0003402002088000020CC120000880200207B
:100FF0008C0200201C0200208402002089000020B6
:10100000D0120000C8120000D4120000201300000B
:10101000E5120000E412000002A5FFFFF01200003C
:1010200084000020B608724B1D68724B1F68724B1B
:101030005A6880218A435A60002E37D0191C01203B
:101040006E4A92460023994690466D4A0A800B7D6F
:101050001842FCD053461B68032B16D9002E16D01D
:101060004A464B460097B4462E1CB758009DAF50D9
:10107000013347463F68BD08AB420AD2043263459C
:10108000F3D1009F351C664606E04B4604E04B4614
:1010900002E0009F351C66465A4A0A800A7D1042CB
:1010A000FCD09A00BF18AD18F61ACED1564B1B686B
:1010B000DB6856480321984738E05A2B36D14D4B10
:1010C0001F68534B1B68002B0CD03D1CFF180026DB
:1010D000311C287800F0B4F8011C0135BD42F8D16C
:1010E000061C00E00026484B1B68DB6849480121CC
:1010F0009847311C6B460F336E4607360F252A1C66
:101100000A400909101C3030092A00DD0730187028
:10111000013BB342F3D13C4D2B68DB6802A80821A8
:1011200098472B68DB683C48032198477A223B4B61
:101130001A700022364B1A60394B1B78002B35D0C1
:10114000314B1B68DB683748012198472EE01A1C99
:10115000303A092A06D82E4A303B156829010B433C
:10116000136023E01A1C413A052A06D8284A373B67
:10117000176839010B43136018E01A1C613A052AFD
:1011800006D8234A573B106801010B4313600DE05A
:101190002C2B06D11E4B174A1968116000221A60C9
:1011A00004E01E4A13700022194B1A601E4A13688D
:1011B000013313601D4A1168013111601C4A126825
:1011C000934200D2A3E591E50F4E3368164DDB68DC
:1011D0001848296898473368DB6817480121984701
:1011E00000232B60154A114B1A600F490F4A9BE6EA
:1011F000840000207C0200200040004138020020D2
:1012000044A5FFFF04A5FFFF80020020F4120000A8
:1012100088020020F8120000FC12000028020020C2
:101220008800002000130000340200202402002067
:1012300020020020D8120000D4120000E5120000A5
:101240000B0A584040000902024BC05A484080B285
:101250007047C0463013000010B50023934203D0FE
:10126000CC5CC4540133F9E710BD031C82189342CF
:1012700002D019700133FAE770470000F8B5C04694
:10128000F8BC08BC9E467047F8B5C046F8BC08BC20
:101290009E4670471201000202000040EB032461E9
:1012A0000002000000010000080000001000000023
:1012B000200000004000000080000000000100004D
:1012C0000002000000040000322E30000A0D000071
:1012D000760000002000000053657020313120327C
:1012E0003031370031393A35343A333900000000B3
:1012F000580A0D00590A0D005A000000230A0D007B
:101300003E000000F10A0000110B0000310B00004C
:10131000550B0000710B0000550B0000990B0000ED
:101320005B41726475696E6F3A58595A5D000000EE
:1013300000002110422063308440A550C660E77051
:10134000088129914AA16BB18CC1ADD1CEE1EFF1F9
:101350003112100273325222B5529442F772D662A1
:10136000399318837BB35AA3BDD39CC3FFF3DEE349
:101370006224433420040114E664C774A4448554F1
:101380006AA54BB528850995EEE5CFF5ACC58DD599
:101390005336722611163006D776F6669556B44641
:1013A0005BB77AA719973887DFF7FEE79DD7BCC7E9
:1013B000C448E5588668A778400861180228233891
:1013C000CCC9EDD98EE9AFF9488969990AA92BB939
:1013D000F55AD44AB77A966A711A500A333A122AE1
:1013E000FDDBDCCBBFFB9EEB799B588B3BBB1AAB89
:1013F000A66C877CE44CC55C222C033C600C411C31
:10140000AEED8FFDECCDCDDD2AAD0BBD688D499DD8
:10141000977EB66ED55EF44E133E322E511E700E80
:101420009FFFBEEFDDDFFCCF1BBF3AAF599F788F28
:101430008891A981CAB1EBA10CD12DC14EF16FE108
:101440008010A100C230E320045025404670676040
:10145000B9839893FBA3DAB33DC31CD37FE35EF358
:10146000B1029012F322D232354214527762567290
:10147000EAB5CBA5A89589856EF54FE52CD50DC5A8
:10148000E234C324A01481046674476424540544E0
:10149000DBA7FAB79987B8975FE77EF71DC73CD7F8
:1014A000D326F2369106B016576676761546345630
:1014B0004CD96DC90EF92FE9C899E9898AB9ABA948
:1014C0004458654806782768C018E1088238A32880
:1014D0007DCB5CDB3FEB1EFBF98BD89BBBAB9ABB98
:1014E000754A545A376A167AF10AD01AB32A923AD0
:1014F0002EFD0FED6CDD4DCDAABD8BADE89DC98DE8
:10150000267C076C645C454CA23C832CE01CC10C1F
:101510001FEF3EFF5DCF7CDF9BAFBABFD98FF89F37
:10152000176E367E554E745E932EB23ED10EF01E6F
:0415300000000000B7
:101534000902430002010080320904000001020292
:101544000000052400100104240200052406000103
:101554000524010001070583030800FF09040100B5
:10156400020A00000007058102400000070502028C
:101574004000000000C201000000080069000000F3
:0815840041000000000000001E
:040000030000057183
:00000001FF
