:10000000FC7F00209D060000890600008D06000090
:1000100000000000000000000000000000000000E0
:100020000000000000000000000000009106000039
:100030000000000000000000950600009906000086
:1000400010B5064C2378002B07D1054B002B02D0AE
:10005000044800E000BF0123237010BD58000020B9
:10006000000000000C1B000008B5084B002B03D05B
:100070000748084900E000BF07480368002B03D089
:10008000064B002B00D0984708BDC046000000007A
:100090000C1B00005C000020540000200000000049
:1000A00010B50124C3695B081C42FBD1036802241C
:1000B000A34303600124C3691C42FCD104680123EB
:1000C00023430360012403681C42FCD10124C3695B
:1000D0001C42FCD1C3695B081C42F8D10A4B1A438D
:1000E00002600122C3699B081A42FBD1C0239B0214
:1000F000436081810122C3695B081A42FBD1026817
:1001000002231343036010BD040000400122037E5C
:100110001A42FCD0018570470122037E9B081A42D7
:10012000FBD0438BDA0705D4438B9A0702D4438B69
:100130005A0702D50122024B1A70008DC0B27047D7
:1001400074000020F8B5041C03689A8B11072FD5A2
:10015000998B08220A439A8380229A721120802167
:100160004900585440200621FF315854822149004B
:100170005A54144A5768144E3740C025AD052F43D2
:10018000576057693E4035435561104D1560104D1D
:10019000156156680F4D35408026B60235435560CF
:1001A0005568AD0BAD03556058540023237106E02C
:1001B0000822FF329B5CDA0601D500F01BFB207998
:1001C000F8BDC0468C010020FFFFFF8F8C0000208F
:1001D0000C010020FF3F00F0016000230371437118
:1001E000034B83600A78022313430B707047C046A9
:1001F0004501000010B53B4BD96920220A43DA6162
:10020000394B5822995C0120014399543C22995C56
:100210000F24A14399549C5C0621214399545921F0
:100220005C5C20435854985C0F2101409954985CC1
:100230006021014399542D4A2D4B5A801A1C537842
:100240005BB2002BFBDB2B4B197801220A431A709F
:10025000191C01228B781A42FCD1274B1B689B0387
:10026000DB0E1F2B00D10523224A9901108D234B51
:1002700003400B431385204B1B685B02DB0E1F2BD7
:1002800000D11D231B4A118D1F2081430B43138571
:10029000194B1B689B015B0F072B00D10323154CE7
:1002A0001A03218D164B0B401343238523787F229D
:1002B0001340237022780423134323701148606293
:1002C00023890C2293432381238901229343238191
:1002D0000021802201F0A9FA22780223134323701F
:1002E00010BDC0460004004000440041064000002C
:1002F000000C004000500041246080003FF8FFFFE8
:10030000FF8FFFFF8C010020F0B5474680B4041C2E
:10031000171C1D1C1E1C5B01274AD31810335B6879
:100320005B005B0F033301229A40BA4208D86B018D
:10033000214AD31858698022120602435A610BE001
:100340002A1C531E9A4192011C4BD2189046101C35
:100350003A1C01F061FA41466B01174AD218131C8E
:100360001161B904890C5269920B92030A435A61D4
:100370005969134A0A405A612B1C08335B01E31880
:10038000DA7903210A4002210A43D9790320814303
:100390000A43DA715979802252420A435A71083667
:1003A000760103250221A319DB792B401942FAD0EB
:1003B000381C04BC9046F0BD8C0100200C010020CC
:1003C000FF3F00F038B5041C151C1F4B1B78002B99
:1003D00013D11E4B1E4A1A645A6C920B92035A6434
:1003E000586C1C4A02405A64A2235B00E05C402225
:1003F0000243E2540122144B1A704823FF33E35C9A
:10040000DA071ED5114B5B6C9B049B0CAB4203D2ED
:100410000E4B5D6CAD04AD0C081C0D492A1C01F09F
:10042000FBF94823FF33E25C03210A4001210A4320
:10043000E15C032081430A43E2540022024B1A701C
:1004400000E00025281C38BD750000208C0100202C
:10045000CC000020FF3F00F0002908D00623FF3326
:10046000C25C30218A4320210A43C25407E006239C
:10047000FF33C25C30218A4310210A43C2547047C3
:1004800010B5104B5A69920B92035A610823FF333F
:10049000C25C03210A4002210A43C15C0324A14338
:1004A0000A43C2540623FF33C15C802252420A43EE
:1004B000C2540824FF3403210222035D0B401A4278
:1004C000FBD010BD8C01002080235B421943C9B2D0
:1004D0008172704770B50322A0235B00C254134B96
:1004E0005C6C134A1440C02189050C435C644024B1
:1004F0004625FF3544550F4D1D64302690256D006F
:1005000046555D6B154029435963802192256D0046
:100510004155094D1D63B0256D0044555C6F224067
:100520005A67B2235B00C15470BDC0468C010020E5
:10053000FFFFFF8FCC0000204C01002010B5474B7F
:1005400059681E229143022211435960444B986915
:10055000082101439961434B196A0A431A62196AD7
:10056000414A0A401A621A6A80218A431A623F4B42
:1005700003229A603E4A5A601A1C53785BB2002BE1
:10058000FBDB0122394B1A7001211A780A4203D091
:100590005A7852B2002AF8DB354A344B5A601A1C9A
:1005A00053785BB2002BFBDB8222D2012F4B5A80A7
:1005B0001A1C53785BB2002BFBDB2A4B9A8C8021F0
:1005C0008A439A84191C1022CB681A42FCD0294B0A
:1005D0001968294B1868234B800E80029C6A274AB1
:1005E000224002439A628905890D9A6A920A920210
:1005F0000A439A62224ADA62191C1022CB681A4214
:10060000FCD0184B998C802292000A439A84191CC2
:100610001022CB681A42FCD0124B998C02220A435A
:100620009A84191C1022CB681A42FCD000220F4B6E
:100630009A601A1C53785BB2002BFBDB114A0B4B00
:100640005A601A1C53785BB2002BFBDB044B002270
:100650001A725A729A72DA7210BDC0460040004196
:100660000004004000080040FFFCFFFF000C0040B9
:10067000030601002860800024608000FF03FFFF64
:1006800004003F1C000703000EBEFEE70DBEFEE7A0
:1006900005BEFEE702BEFEE701BEFEE710B5184B41
:1006A000184A9A4216D0131C174A9A4212D0144B79
:1006B000144A9A420ED2154B11480330C01A8008D2
:1006C000013080000023111C0F4AD458CC50043351
:1006D0008342FAD10E4B0F4A9A420DD00CD20E4BE8
:1006E0000B490331C91A890801318900043BC91833
:1006F000002204C38B42FCD100F010F8FEE7C04694
:100700005800002000000020101B00000400002002
:100710009C030020580000205C00002070B53823A6
:100720002B4AD35CDA0703D500222A4B1A6012E069
:10073000284B1A68284B9A4203D10022254B1A6095
:100740001DE0254A234B1A60244B013B002BFCD1B2
:100750000022204B1A60224B1A68531C0FD0214BE9
:1007600021490B60043BFF210B4208D182F308882A
:10077000FF2293431D4A9360194B5B681847FFF7AC
:10078000DDFE62B600F02AFE00F066FA041C184E88
:10079000351C201CA2689047002802D00123144A6F
:1007A00013703378002B05D0002000F0D7FA00F04A
:1007B00045FBFCE72B78002BEBD100F083FE0028F3
:1007C000E7D0012000F0CAFA00F038FBFCE7C04691
:1007D00000040040FC7F00203581730748E80100D9
:1007E00000200000042000000C02002000ED00E0CA
:1007F00076000020F8B5071C04680823FF33E15C8D
:1008000010220A43E254AF4B1978AF4A117059785D
:10081000AE4D29709878AE4908800E88D8780002CD
:10082000304308801979AB4E3180308859790902FC
:10083000014331809979A84E31803188DB791B02E0
:100840000B433380402182235B00E1542B781178E5
:10085000C9B2A24B19702B7812781B021343A04A1D
:10086000934200D1E7E026DC80225200934200D17F
:100870001FE180225200934209DC812B00D193E0DA
:10088000822B00D198E0802B00D0D5E184E081223A
:100890005200934200D137E181225200934200DAA4
:1008A0000CE1C0229200934200D1BBE08D4A9342FA
:1008B00000D1BCE0C0E19022120193425BD09022B3
:1008C000120193420DDCD022D20093421CD0882228
:1008D0001201934259D0A022D200934200D0ABE142
:1008E0003FE0814A934200D18CE104DC7F4A93428D
:1008F00000D1DEE0A0E17E4A934200D186E17D4A4C
:10090000934200D191E197E1714B1B881B0A012BA7
:100910000ED13868704B1B889BB21222122B02D862
:100920006D4B1A8892B274490023FFF7EDFC87E102
:10093000674B1B881B0A022B0ED13868664B1B883D
:100940009BB24322432B02D8634B1A8892B26B4965
:100950000023FFF7D9FC73E1201C0121FFF77CFD88
:100960006EE1201CFFF78CFD594B198889B238685D
:10097000FFF7AAFD64E1564B1B883B71201CFFF773
:100980007FFD201CFFF7A6FD5AE1391C01C9012299
:100990000023FFF7B9FC53E1594900230B80386865
:1009A0000222FFF7B1FC4BE1554900230B80386868
:1009B0000222FFF7A9FC43E10022514B1A80454B6C
:1009C0001988502211404F4A117019880F220A408D
:1009D0001A801B889BB2032B1FD84A4B1B78002B15
:1009E0000AD03C4B1B8808335B01E418A2799206BD
:1009F000D20F434B1A8009E0364B1B8808335B014A
:100A0000E418A279D206D20F3D4B1A8038683C49CF
:100A100002220023FFF778FC12E1201C0121FFF7DE
:100A20001BFD0DE1201C0121FFF716FD08E1201C34
:100A3000FFF726FD04E1274B19887F229143C9B2B5
:100A4000304A117019880F220A401A80204B1B88E7
:100A50009BB2002B28D11F4B1B889BB2002B23D0AD
:100A60001C4B1B889BB2032B1ED8264B1B78002BDC
:100A70000BD0184B1B8808335B01E3185A793021DF
:100A80008A4320210A435A710AE0124B1B8808331B
:100A90005B01E3185A7930218A4310210A435A71C5
:100AA000201CFFF7EDFCCBE0201C0121FFF7D4FC5C
:100AB000C6E0201C0121FFF7CFFCC1E0201CFFF79E
:100AC000DFFCBDE08C0000207D0000207C000020C9
:100AD000780000207A0000207E00002083000020A3
:100AE000020300000103000021200000010B0000B0
:100AF000A121000021220000541800000000002065
:100B000080000020820000204E4B19887F229143F4
:100B1000C9B24D4A117019880F220A401A804B4BF6
:100B20001B889BB2002B68D1464B1B889BB2002BC5
:100B300063D0444B1B889BB2032B5ED8424B1B787F
:100B4000002B2BD03F4B1B8808335B01E3189B79AC
:100B50009A064ED53B4B1A8808325201A2181179D9
:100B6000302081432020014311711B8808335B0131
:100B7000E318DB795A063CD5324B1A880832520109
:100B8000A218D0796021884340210143D1711B888C
:100B900008335B01E31802221A712AE0294B1B88F3
:100BA00008335B01E3189B79DA0622D5254B1A88B6
:100BB00008325201A21811793020814310200143DC
:100BC00011711B8808335B01E318DB799A0610D595
:100BD0001C4B1A8808325201A218D0796021884330
:100BE00020210143D1711B8808335B01E3180122E6
:100BF0001A71201CFFF744FC22E0201C0121FFF7A2
:100C00002BFC1DE0201CFFF73BFC19E03868104B63
:100C10001B889BB20822082B02D80D4B1A8892B26F
:100C20000C490023FFF770FB0AE0084B1B887B711F
:100C3000201CFFF725FC03E0201C0121FFF70CFC22
:100C4000F8BDC0467A000020820000207800002015
:100C50007E0000204400002010B5054C054B2360A9
:100C6000FFF7C8FA201C2168FFF7B6FA201C10BD58
:100C7000100200200050004100B583B00190054BE8
:100C8000186801A901220123FFF73EFB012003B0F0
:100C900000BDC0461002002010B582B0054B186898
:100CA0006C460734211C0122FFF78CFB207802B030
:100CB00010BDC0461002002008B50748FFF742FAF1
:100CC000031C0020002B06D0034B1A684823FF3377
:100CD000D05C0123184008BD1002002010B5031C91
:100CE0000C1C044A1068191C221C0123FFF70CFB82
:100CF000201C10BD1002002038B5051C0C1C074834
:100D0000FFF720FA0023002806D0044B1868291C9E
:100D1000221CFFF757FB031C181C38BD10020020D3
:100D2000F8B5051C0F1C0C48FFF70CFA002300282F
:100D300010D0002F0BD03C1C074E3068291C221C01
:100D4000FFF740FB241A2D18002CF6D101E03B1CC4
:100D500000E03B1C181CF8BD10020020012806D141
:100D6000064A074B1A600122064B1A7004E000285D
:100D700002D1054A024B1A607047C046881800002D
:100D80008002002089000020E0180000F0B585B046
:100D9000214B1B78002B2FD0042901D1036830E0B0
:100DA000022901D103882CE003784D0004A84219E0
:100DB0000B3A002D29D10DE0341C1C40092C02D81F
:100DC0003C43147001E0373414701B09013A0130C0
:100DD000A842F1D301A83023037078234370013176
:100DE00049000A23435445190D23EB700B4B1B6834
:100DF0000231DB6898470CE0084B1B68DB689847BA
:100E000007E04D0004A842190B3A00200F263027B6
:100E1000D2E705B0F0BDC046880000208002002067
:100E200072B6EFF30883044A1360036883F30888FB
:100E3000436818477047C04684020020F0B55F46FB
:100E400056464D464446F0B48DB004A9BF4A0B1C2B
:100E500031CA31C391CA91C3A0CAA0C3BC4A936826
:100E60005B035B0F9B005B58BA490B60926892B2C0
:100E7000B9490A605343B9490B60B94B00221A6063
:100E80007A22B84B1A70B8488346B84C01340194A2
:100E9000B74C5D462B681B69201C40219847B54B19
:100EA0001860B54B1C600022B44B1A600028EFD0CC
:100EB000B14C27683B78FF2B00D145E2232B00D0B3
:100EC00013E2AF4B1B78002B05D0A74B1B68DB68E8
:100ED000AC4802219847A34B1B78532B3ED1A54B1E
:100EE0001B68A64A1268934221D9A34801680131C0
:100EF00001600132A14802609A1AA34B186882422D
:100F000002D2A24B1A6001E0A04B1860944B186803
:100F10009E4D2A6800F080FC2B68984A10681918CA
:100F20001160954A1568E9181160994A1370934B3E
:100F30001A68013A1A60904B1A68013A1A60944B89
:100F40001B78914A11688B4206D2874A12688448FE
:100F50000068C91A92699047C046B5E1522B08D182
:100F6000814B1B687E4A1068874A11685B69984705
:100F7000AAE14F2B05D17A4B1B68834A12681A707D
:100F8000A2E1482B05D1764B1B687F4A12681A8074
:100F90009AE1572B05D1724B1B687B4A12681A6085
:100FA00092E16F2B05D16E4B18680121FFF7EEFE21
:100FB0008AE1682B08D17448694B1B681B88036061
:100FC0000221FFF7E3FE7FE1772B08D1644B1B681A
:100FD0001B686D4803600421FFF7D8FE74E1472BBE
:100FE00013D1694B1868FFF71BFF6A4B1B6883F32B
:100FF000088862B6684B1B78002B00D164E15A4B1D
:101000001B681B68062098475EE1542B09D101221A
:101010005B4B1A70544B1B68DB685A480221984797
:1010200052E14E2B09D1504B1B68DB685548022119
:1010300098470022524B1A7046E1562B58D14A4D20
:101040002B68DB685548012198472B68DB685448BA
:10105000032198472B68534EDB68301C01219847C9
:101060002B68DB6850480D2198472B68DB68301CE3
:10107000012198470022414B1A603F4B019F1F609E
:101080003A4D2B78002B00D16CE13C493A4A0B6871
:1010900001330B601368581C10601B78002BF6D1CD
:1010A000314E3368354DDB683048296898473368DE
:1010B000DB683C480121984700232B603B4A2E4BBC
:1010C0001A6060E10B6801330B601368581C1060F4
:1010D0001B78002BF6D1244D2B68284A1168DB6859
:1010E000334898472B68DB68264802219847EBE095
:1010F000582B1FD1244B1868184B1B68984212D2EA
:10110000134A2C4FBC460121124E144D4308D361A3
:1011100063461380137D1942FCD03768BB00C018AA
:101120002B689842F2D3104B1B68DB6822480321DE
:101130009847C9E0592B00D08DE0134B1E68002E54
:101140003ED1074B1A681D4B1A607DE068180000FD
:101150000040004138020020300200202C02002014
:101160007C0200202802002080020020B418000029
:101170003C02002020020020240200203402002033
:1011800088000020A8180000880200208C0200209F
:101190001C0200208402002089000020AC180000FE
:1011A000A4180000B0180000FC180000C1180000CE
:1011B000C018000002A5FFFFCC180000840000202A
:1011C000B608724B1D68724B1F68724B5A688021BB
:1011D0008A435A60002E37D0191C01206E4A92466D
:1011E0000023994690466D4A0A800B7D1842FCD038
:1011F00053461B68032B16D9002E16D04A464B4681
:101200000097B4462E1CB758009DAF500133474697
:101210003F68BD08AB420AD204326345F3D1009F58
:10122000351C664606E04B4604E04B4602E0009F54
:10123000351C66465A4A0A800A7D1042FCD09A0044
:10124000BF18AD18F61ACED1564B1B68DB6856484E
:101250000321984738E05A2B36D14D4B1F68534B2A
:101260001B68002B0CD03D1CFF180026311C287871
:1012700000F04CF9011C0135BD42F8D1061C00E01C
:101280000026484B1B68DB68494801219847301C01
:101290006B460F336E4607360F252A1C02400009A5
:1012A000111C3031092A00DD07311970013BB342AE
:1012B000F3D13C4D2B68DB6802A8082198472B68C6
:1012C000DB683C48032198477A223B4B1A70002286
:1012D000364B1A60394B1B78002B35D0314B1B68CD
:1012E000DB683748012198472EE01A1C303A092A5A
:1012F00006D82E4A303B156829010B43136023E0C2
:101300001A1C413A052A06D8284A373B1768390182
:101310000B43136018E01A1C613A052A06D8234AC9
:10132000573B106801010B4313600DE02C2B06D1D5
:101330001E4B174A1968116000221A6004E01E4A09
:1013400013700022194B1A601E4A13680133136090
:101350001D4A1168013111601C4A1268934200D283
:10136000A7E595E50F4E3368164DDB6818482968E8
:1013700098473368DB6817480121984700232B60A2
:10138000154A114B1A600F490F4A9BE68400002052
:101390007C020020004000413802002044A5FFFFED
:1013A00004A5FFFF80020020D01800008802002062
:1013B000D4180000D818000028020020880000205F
:1013C000DC1800003402002024020020200200204B
:1013D000B4180000B0180000C118000010B51E4B72
:1013E0005022995C0120014399543822995C0F24C2
:1013F000A14399549C5C02212143995451215C5C86
:1014000020435854985C0F2101409954985C202146
:1014100001439954114B196A08220A431A62104A6F
:10142000104B5A801A1C53785BB2002BFBDB0E4822
:101430000E4980225203FEF733FE00230C4A13703C
:101440000C4A13700C4A13700C4A13700C4A137038
:101450000C4A137010BDC046004400410004004017
:1014600015400000000C0040000C004204C50000C4
:10147000900200201A030020910200209402002014
:101480001B0300201803002008B5C1B20248FEF774
:101490003DFE012008BDC046000C0042024B187EF4
:1014A0004007C00F7047C046000C004208B5FFF768
:1014B000F5FF0028FBD00248FEF72EFE08BDC0460F
:1014C000000C004208B5FFF7E9FF0023002805D013
:1014D000FFF7ECFF031C233B5A425341181C08BD85
:1014E00070B5041C0E1E06D045182078FFF7CCFFFF
:1014F0000134AC42F9D1301C70BDC04610B5041C9B
:10150000FFF7D4FF2070012010BDC0460B0A5840E1
:1015100040000902024BC05A484080B27047C046A2
:101520000C190000F0B55F4656464D46E0B4061C67
:101530008946002928D00024002718498A46184ADD
:101540009346FFF7B3FFC5B251460B78002B1DD170
:10155000281C391CFFF7DAFF071C5A461388002B9A
:1015600003D1104B1B78002B09D0731C35701E1C47
:101570004946802903D10A490A88013A0A80013480
:10158000A4B24C45DDD103E0002002E0012000E0E0
:10159000381C1CBC91469A46A346F0BD1803002097
:1015A0009202002019030020F0B55F4656464D46D2
:1015B0004446F0B483B001908B4600224A4B1A7027
:1015C000002903D10122494B1A700CE0484B1980C5
:1015D0000022464B1A705A46520604D05B468033AE
:1015E0007F2293439B46404D2C1C0026FFF75EFF55
:1015F0002B78002B0BD02670FFF758FFC0B2237852
:10160000002B05D00022384B1A70002563E0C0B2D1
:10161000432823D071285DD01528E7D11EE0002291
:10162000314B1A7057E0FF231840062809D1009B60
:101630000133DBB2009380235B429B4401998031EC
:1016400001915A46002A10D10420FFF71DFFFFF731
:101650002DFF0022254B1A7001253CE00123009349
:10166000234988468946214B9A460120FFF70CFF03
:101670000098FFF709FF0099C843C0B2FFF704FFC5
:10168000019E8025002742461388002B04D1514635
:101690000A780024002A04D03478013B4A4613809B
:1016A0000136201CFFF7F0FE201C391CFFF72EFF2F
:1016B000071C013D002DE6D1000AC0B2FFF7E4FE91
:1016C000F8B2FFF7E1FEFFF7F1FE074B1B78002BA6
:1016D000A9D0A4E70025281C03B03CBC904699463D
:1016E000A246AB46F0BDC0461803002019030020F7
:1016F00092020020F0B557464E46C0B483B0061C97
:101700000022414B1A70002903D101223F4B1A706D
:1017100004E03F4B198000223C4B1A7064253D4F7A
:101720004320FFF7B1FE3C1C00E0013CFFF7B6FE92
:10173000002802D1002CF8D101E0002C03D1013D9A
:10174000002DEDD159E001242F4D2F1CFFF7AEFEE7
:101750002A78002A04D000222B4B1A7000254CE076
:10176000FF230340012B02D0042B39D03BE001A81A
:101770000221FFF7D7FE301C8021FFF7D3FE814600
:101780003B78002B34D1FFF791FE000280B28246F5
:10179000FFF78CFE504480B21B4A1378012B27D0F0
:1017A000814509D101AB1B78A34205D1E34301AACE
:1017B0005278DBB29A4203D01820FFF765FE17E09B
:1017C0000620FFF761FE104B1B78002B04D000228F
:1017D0000D4B1A70002510E0631CDCB28036B5E7B3
:1017E0000620FFF751FE0022084B1A70012504E085
:1017F000054B1B78002BF6D0E9E7281C03B00CBC86
:1018000091469A46F0BDC0461803002019030020F7
:10181000920200205523080010B50023934203D004
:10182000CC5CC4540133F9E710BD031C8218934209
:1018300002D019700133FAE770470000F8B5C046CE
:10184000F8BC08BC9E467047F8B5C046F8BC08BC5A
:101850009E4670471201000202000040EB03246123
:10186000000200000001000008000000100000005D
:101870002000000040000000800000000001000087
:10188000000200000004000089140000AD140000F4
:101890009D140000E1140000FD140000A9150000D3
:1018A000F5160000322E30000A0D00007600000010
:1018B000200000004D617220323520323031360078
:1018C00032313A31363A313200000000580A0D0008
:1018D000590A0D005A000000230A0D003E000000C6
:1018E000790C0000990C0000B90C0000DD0C000020
:1018F000F90C0000DD0C0000210D00005B4172645A
:1019000075696E6F3A58595A5D0000000000211049
:10191000422063308440A550C660E7700881299159
:101920004AA16BB18CC1ADD1CEE1EFF13112100201
:1019300073325222B5529442F772D66239931883A9
:101940007BB35AA3BDD39CC3FFF3DEE362244334CD
:1019500020040114E664C774A44485546AA54BB5F9
:1019600028850995EEE5CFF5ACC58DD553367226A1
:1019700011163006D776F6669556B4465BB77AA749
:1019800019973887DFF7FEE79DD7BCC7C448E558ED
:101990008668A7784008611802282338CCC9EDD999
:1019A0008EE9AFF9488969990AA92BB9F55AD44A41
:1019B000B77A966A711A500A333A122AFDDBDCCBE9
:1019C000BFFB9EEB799B588B3BBB1AABA66C877C0D
:1019D000E44CC55C222C033C600C411CAEED8FFD39
:1019E000ECCDCDDD2AAD0BBD688D499D977EB66EE1
:1019F000D55EF44E133E322E511E700E9FFFBEEF89
:101A0000DDDFFCCF1BBF3AAF599F788F8891A9814A
:101A1000CAB1EBA10CD12DC14EF16FE18010A10034
:101A2000C230E3200450254046706760B983989324
:101A3000FBA3DAB33DC31CD37FE35EF3B102901284
:101A4000F322D2323542145277625672EAB5CBA5F0
:101A5000A89589856EF54FE52CD50DC5E234C324D4
:101A6000A01481046674476424540544DBA7FAB7C4
:101A70009987B8975FE77EF71DC73CD7D326F23624
:101A80009106B01657667676154634564CD96DC910
:101A90000EF92FE9C899E9898AB9ABA94458654874
:101AA00006782768C018E1088238A3287DCB5CDB64
:101AB0003FEB1EFBF98BD89BBBAB9ABB754A545AC4
:101AC000376A167AF10AD01AB32A923A2EFD0FED30
:101AD0006CDD4DCDAABD8BADE89DC98D267C076C14
:101AE000645C454CA23C832CE01CC10C1FEF3EFF04
:101AF0005DCF7CDF9BAFBABFD98FF89F176E367E64
:101B0000554E745E932EB23ED10EF01E00000000C2
:101B100009024300020100803209040000010202B0
:101B20000000052400100104240200052406000121
:101B30000524010001070583030800FF09040100D3
:101B4000020A0000000705810240000007050202AA
:101B50004000000000C20100000008006900000011
:081B600041000000000000003C
:040000030000069D56
:00000001FF
