:10000000FC7F0020BD050000A9050000AD05000033
:1000100000000000000000000000000000000000E0
:10002000000000000000000000000000B10500001A
:100030000000000000000000B5050000B905000048
:1000400010B5064C2378002B07D1054B002B02D0AE
:10005000044800E000BF0123237010BD5C000020B5
:10006000000000003C17000008B5084B002B03D02F
:100070000748084900E000BF07480368002B03D089
:10008000064B002B00D0984708BDC046000000007A
:100090003C17000060000020580000200000000015
:1000A00010B5C3699C07FCD403680224A343036012
:1000B000C46901231C42FBD1046823430360036825
:1000C000DC07FCD4C46901231C42FBD1C469DC40B9
:1000D0001C42F7D1084B1A430260C3695A07FCD48B
:1000E000C0239B0243608181C3699C07FCD40368E1
:1000F00002221343036010BD04000040037EDA07B0
:10010000FCD5018570470000027E01235107FBD515
:10011000428B1A4207D1428BDA401A4203D1428BFA
:1001200092081A4202D0034B01221A70008DC0B20D
:100130007047C0467800002070B50368041C988B97
:100140001A1C0821FF32084228D0988B174D014312
:10015000802099839872112353704021144B917120
:1001600050715E68C0202E40800506435E605E6967
:100170003540284358610F4818600F4818615D6882
:100180000E4828408025AD02284358605868800BEF
:100190008003586000235171237105E0137ADA0659
:1001A00002D5201C00F0D8FA207970BDFFFFFF8F28
:1001B000940100209400002014010020FF3F00F073
:1001C000002303714371044B016083600B780222AA
:1001D00013430B707047C0463901000038B5364BE9
:1001E0002021DA6901200A43DA61344B06241A78A7
:1001F00002431A70324B0F22197891431970197803
:10020000214319702F490C782043087019780A404F
:100210001A701A7860210A431A702B4B2B4A5A80A5
:100220005A7852B2002AFBDB294B01211A780A4383
:100230001A709A78D107FCD426480268510B1F2205
:100240001140914200D1052111408C011D8D2249A0
:100250002940214319850468A10C0A401F2A00D1B6
:100260001D221C8D1F210A408C4322431A850268DF
:100270000721D20D0A408A4200D103220A40188D7C
:100280001103164A02400A431A8519787F220A4050
:100290001A701A78042112480A431A7058621A898F
:1002A0000C218A431A811A8901218A431A8100216B
:1002B000802201F0D8F838BD0004004058440041C5
:1002C0003C44004159440041000C004006400000FD
:1002D00000500041246080003FF8FFFFFF8FFFFFC8
:1002E00094010020F7B5141C204A5F0101971D1CE2
:1002F000D319061C5869271C4000400F03301033E7
:10030000C74006D00F1C8022596812060A435A6063
:1003100009E02F1C7B1E9F41154BBF01FF18381CA5
:10032000221C01F097F8019910480835421817610E
:10033000131C5269A104920B890C92030A435A615F
:1003400059690C4A0A405A616B01F318DA790221A3
:100350000A43DA715979802252420A435A716B0179
:10036000F318DB799A07FAD5201CFEBD9401002012
:1003700014010020FF3F00F0F8B51B4E051C337838
:10038000141C002B12D1194B194A1A645A6C920B87
:1003900092035A64586C174A02405A64A2235B00C5
:1003A000EA5C40200243EA54012333704827FF37B8
:1003B000EA5D0123134014D00C4B5A6C9204920C4A
:1003C000A24202D25C6CA404A40C081C221C0849A2
:1003D00001F040F8EB5D01221343EB55002333702D
:1003E00000E01C1C201CF8BD7900002094010020B6
:1003F000D4000020FF3F00F0FF302023002900D16F
:100400001023837170470000094BFF305A69920B2B
:1004100092035A61037A0222134303728279802382
:100420005B4213438371037A9A07FCD57047C04639
:100430009401002080235B421943C9B28172704746
:1004400070B5A02303225B00C254134B134A5C6CAB
:10045000C021144089050C4346255C64FF354024C7
:1004600044550F4D30261D6490256D0046555D6B3B
:1004700015402943922559636D0080214155094D4E
:100480001D63B0256D0044555C6F22405A67B2234E
:100490005B00C15470BDC04694010020FFFFFF8F78
:1004A000D40000205401002030B5364A1E23516884
:1004B0000820994302231943516033498A69024352
:1004C0008A613248324A9082908A03439382D36889
:1004D0009807FCD52F4B012018701878C40704D555
:1004E0002C48407840B20028F7DB0120986058780B
:1004F00040B20028FBDB284C26484460587840B2C4
:100500000028FBDB82242348E4014480587840B271
:100510000028FBDB908C8024A0439084D068C50623
:10052000FCD51E4C1A48C462D4681948E506FBD5B0
:10053000848C1B4D2C438484D4681548E506FBD578
:10054000848C02252C438484D0680406FCD5104892
:10055000C0684506F8D5D068C406FCD500229A606C
:100560005A7852B2002AFBDB0E480A4A50605A7889
:1005700052B2002AFBDB00230B724B728B72CB72E0
:1005800030BDC04600400041000400400C060000A1
:1005900000080040000C004001050100B805FF7D87
:1005A000040A0000000703000EBEFEE70DBEFEE7D2
:1005B00005BEFEE702BEFEE701BEFEE70E4A0F489B
:1005C00038B5824204D10E4A0E4B93420ED10AE056
:1005D0000D4C9442F7D00023D1188842F3D9E55846
:1005E00004330D60F8E700F04DF804E09342FAD2CE
:1005F000002102C3FAE7FEE7000000205C000020B3
:10060000A00300205C00002040170000194A10B52C
:100610001188FA24013189B2174BA400A14201D0FC
:1006200011801CE000211180144900240C57604304
:100630001C88001980B204B2FF2C01DC188002E093
:10064000FF20188008700024185F002803DA0020BB
:100650001880012008708020094980028861128872
:1006600000215B5E9A4203D18022054B92025A61BF
:1006700010BDC0467A0000207C0000200000002051
:100680000044004138B580222B4B92029A605A6197
:100690002A4A1C1C117801221140294B00220029F2
:1006A0000AD11868274A904201D1196018E01A60EF
:1006B000254A013A002AFCD11A60244B1A68191CF9
:1006C000501C0DD0D8B200280AD180208002A06131
:1006D00082F30888FF2293431D4A93604B681847B2
:1006E000FFF7E2FE62B600F0E3FC00F0B7F980230A
:1006F0009B02051CA3610320FFF788FFAB68281C41
:100700009847144B002801D001221A701A78002A49
:1007100005D0002000F01EFA00F07AFAFCE71B7802
:10072000002BE8D100F038FD0028E4D0012000F0D3
:1007300011FA00F06DFAFCE7004400413804004073
:10074000FC7F00203581730748E80100002000008D
:1007500000ED00E07E000020F8B50468051C201CB8
:10076000FF30037AAD4A10210B430372AC4F13786C
:10077000AC493B705378AC4E0B7093783380D17892
:10078000338809020B4333801179A84B19805179C2
:100790001F8809020F431F809779A5490F80D279DE
:1007A0000F8812023A430A80402242719D489C4FB2
:1007B000027838789F4F12020243181CBA4200D1C7
:1007C00099E01EDC802149008A4200D121E107DC4A
:1007D000812A6AD0822A6ED0802A00D019E164E092
:1007E00081235B009A4200D1A8E000DA0DE1C0232A
:1007F0009B009A4200D10CE18F4B9A4200D104E158
:1008000007E190231B019A4242D015DCD023DB0084
:100810009A4222D088231B019A4242D0A023DB00B7
:100820009A4200D0F5E0201CFFF7EEFD31882868E1
:1008300089B2FFF7FFFDF0E0804B9A4200D1E4E07F
:1008400000DCE6E07E4B9A4200D1D2E07D4B9A423A
:1008500000D0DEE033886B71D7E033881B0A012BB0
:1008600008D10B8812222868934201D80A8892B2D4
:100870007549C6E033881B0A022B00D0C9E00B88FB
:1008800043222868934201D80A8892B26F49B8E09F
:100890003388201C2B71FFF7B7FD201CFFF7D0FD1C
:1008A000BBE0291C01C90122ABE0694900230B8090
:1008B00028680222A6E0664900220A801888502291
:1008C0001040644A10701E880F203040188018882D
:1008D000032800D99DE012781B8808335B01E418D7
:1008E000A379002A01D09B0600E0DB06DB0F0B801A
:1008F0002868022285E019887F229143554AC9B2AF
:10090000117018880F21014019803188002900D00A
:100910007FE01988002900D17BE01988032900D9DC
:1009200077E012781B8808335B01E318002A02D0B5
:1009300020225A7169E01020587166E002887F23F6
:100940009A43444BD2B21A7001880F220A400280A7
:100950003288002A5DD10288002A5AD00288032AF0
:1009600057D81B78002B21D0038808335B01E3188C
:100970009B79990649D50388202208335B01E31847
:100980001A71038808335B01E318DB795A063CD5FA
:100990000388402108335B01E318DA790A43DA71EE
:1009A0000388022208335B01E31820E00388083340
:1009B0005B01E3189B79DF0627D5038810220833F3
:1009C0005B01E3181A71038808335B01E318DB79D4
:1009D00099061AD50388202108335B01E318DA79D8
:1009E0000A43DA710388012208335B01E3181A71A4
:1009F0000BE00B8808222868934201D80A8892B23B
:100A000015490023FFF76EFC07E0201CFFF7FCFCF4
:100A100003E0201C0121FFF7EFFCF8BD940000204B
:100A2000890000207F000020800000208600002038
:100A300084000020020300000103000021200000C8
:100A4000A1210000212200009014000004000020D9
:100A500082000020880000204800002010B5054BCF
:100A6000054C2360FFF7BAFB201C2168FFF7A8FBA9
:100A7000201C10BD005000411402002007B5054B9A
:100A80000122019001A91868131CFFF72BFC01201B
:100A90000EBDC0461402002013B5054B6C4607344A
:100AA0001868211C0122FFF767FC207816BDC0469C
:100AB0001402002010B5074C201CFFF73DFB031C5F
:100AC0000020834205D022684823FF33D05C0123F5
:100AD000184010BD1402002010B5054A0C1C031C60
:100AE000191C10680123221CFFF7FCFB201C10BD01
:100AF0001402002070B5084C061C201C0D1CFFF7CA
:100B00001BFB0023984205D02068311C2A1CFFF7EC
:100B100033FC031C181C70BD14020020F8B50C4CEB
:100B2000051C201C0E1CFFF707FB0023271C341C90
:100B300098420AD0002C07D0291C221C3868FFF7E5
:100B40001BFC241A2D18F5E7331C181CF8BDC046F1
:100B500014020020012805D1054B064A1A60064BF5
:100B6000187004E0002802D1044A014B1A60704753
:100B700084020020C4140000910000201015000021
:100B800030B51A4B85B01B78002B29D0042901D130
:100B9000026804E0022901D1028800E002784900DD
:100BA00004A843180B3B5C1AA3420BD00F20104043
:100BB000092802D83025284300E037301870120980
:100BC000013BF1E701A830230370782343700A2228
:100BD00043189A700D22DA70054B04311B6801E04E
:100BE000034B1B68DB68984705B030BD90000020C0
:100BF0008402002072B6EFF30883044A136003688E
:100C000083F30888436818477047C046880200206D
:100C1000F0B58FB006A9CE4A0B1C31CA31C351CAF8
:100C200051C360CA60C3CB4CCB48A3687A255B0331
:100C30005B0F9B005B58C9490360A26892B25343A3
:100C40000A60C749C74A0B6000231360C64B1D707A
:100C50000320FFF7DBFCC54BC54D1B68281C1B6937
:100C600040219847C34B00221860C34B1D60C34B03
:100C7000C24DC04F1A60286839688842E8D2BE4B1E
:100C80001B681A78FF2A00D1F6E1232A00D0CDE1B3
:100C9000BB4E3378002B05D0B44BBA481B680221F9
:100CA000DB689847B04B1B78532B38D13B682A68D8
:100CB00093421ED9B04801322A609A1AB24B016899
:100CC0001B6801310160B14E9A4201D2326000E0EE
:100CD0003360A44832680068029000F0BBFB3368C0
:100CE00029685A182A60A44A1668F1181160A84A9F
:100CF00013702B68013B2B609F4B1A68013A1A60F6
:100D0000A34BA14A1B7811688B4206D2974A95489B
:100D100012680068C91A92699047C04675E1522B63
:100D200007D1904A914B10681B68974A5B6911681C
:100D30006AE14F2B05D18B4B934A1B6812681A70DE
:100D400063E1482B05D1874B8F4A1B6812681A80D4
:100D50005BE1572B05D1834B8B4A1B6812681A60E5
:100D600053E16F2B03D17F4B0121186807E0682BFB
:100D700008D17C4B84481B6802211B880360FFF765
:100D8000FFFE42E1772B06D1764B7F481B6804219A
:100D90001B680360F3E7472B13D17B4B1868FFF701
:100DA00029FF7C4B1B6883F3088862B67A4B1B785B
:100DB000002B00D129E16D4B06201B681B6898476A
:100DC00023E1542B04D101233370684B1B685CE092
:100DD0004E2B0BD13378002B05D1644B69481B682F
:100DE0000221DB689847002333700EE1562B50D167
:100DF0005E4D01212B686948DB6898472B68032109
:100E0000DB6867489847674E2B68301CDB68012118
:100E100098472B680D21DB68634898472B68301C86
:100E2000DB6801219847544F604B544E3B600023D0
:100E300033603A1C311C1368581C10601B780393F4
:100E4000002B03D00B6801330B60F4E72B6831688B
:100E5000DB68564898472B685248DB680121984761
:100E60000398306052483860434A1368591C116037
:100E70001A78424B002A03D01A6801321A60F3E74D
:100E80002A681968D36898472B68DB683D480221B7
:100E9000BAE03D4A582B15D12F4E314D36681368B4
:100EA0002A68B100934208D25808E0614148208086
:100EB000207DC507FCD55B18F4E72C4B3E481B682A
:100EC000DB68A0E0592B33D11268264B3B49002A3E
:100ED00002D11B680B6026E00868196863688025EA
:100EE000AB4392086360002A1DD0354B2380237DDD
:100EF000DE07FCD50023184D2D680095AD08AB42E8
:100F000002D3304D258006E09342FAD09D00465929
:100F100001334E51EFE7257DEE07FCD59D004919C1
:100F20004019D21ADFE7114B27481B68DB686AE0DB
:100F30005A2B6AD10B4B17681D680026EF19BD426A
:100F400044D02878311C00F049F90135061CF6E739
:100F5000A4140000004000413C02002034020020A4
:100F600030020020800200202C0200208402002099
:100F70004002002024020020280200203802002025
:100F800090000020041500008C0200209002002038
:100F9000200200208802002091000020E0140000C0
:100FA00009150000E21400002C150000E4140000F4
:100FB000F014000002A5FFFFF91400008C000020CF
:100FC00044A5FFFF04A5FFFFFD1400002E4D2F4890
:100FD0002B680121DB68984707230F223240111C40
:100FE00036093031092A00DD07311020C0186A4661
:100FF0008154013BF1D22B6804A8DB680821984793
:101000002B682348DB6803219847224D7A232B70F5
:10101000214B00221A60214B1B7893422CD01A4B93
:1010200001211B681E48DB68984725E0111C3039F8
:10103000C8B2194B092804D81E683201114319603F
:101040001AE0111C4139052903D81868373A010103
:1010500006E0111C6139052904D81D68573A290199
:101060000A4308E02C2A03D10E4A1E68166001E0EC
:1010700008490A7000221A600B4B1A6801321A6084
:101080000A4B1A680132F3E58402002001150000C2
:10109000031500002C0200208C020020900000208C
:1010A00007150000800200203802002028020020DE
:1010B00010B51C4B01201A78022402431A701A4BF7
:1010C0000F22197891431970197821431970174923
:1010D0000C782043087019780A401A701A78202179
:1010E0000A431A70124B04211A6A0A431A62114BFE
:1010F000114A5A805A7852B2002AFBDBC4220F48A8
:101100000F499203FEF7CCFF0E4A002313700E4ADC
:1011100013700E4A13700E4A13700E4A13700E4A63
:10112000137010BD4A440041354400414B44004116
:1011300000040040000C0040144000000008004281
:101140002AF60000940200201B03002095020020D4
:10115000980200201C0300201903002008B5C1B22A
:101160000248FEF7CBFF012008BDC0460008004240
:10117000024B187E4007C00F7047C046000800426F
:1011800008B5FFF7F5FF0028FBD00248FEF7BCFFCB
:1011900008BDC0460008004208B5FFF7E9FF00237C
:1011A000984205D0FFF7ECFF031C233B5A42534102
:1011B000181C08BD70B5041C0D1C4618B44204D0A0
:1011C0002078FFF7CBFF0134F8E7281C70BD10B57D
:1011D000041CFFF7D5FF2070012010BD0B0A5840FA
:1011E000034B4000C05A0902484080B27047C046D5
:1011F0003A150000F7B50024051C0F1C261CBC4244
:1012000020D0FFF7BDFF114BC0B21B780190002B1F
:101210001AD1311CFFF7E2FF0D4B061C1A88002A79
:1012200004D10C4A11782A1C002907D001996A1CA4
:101230002970802F02D11988013919800134A4B294
:10124000151CDCE7301C00E00120FEBD1903002066
:10125000960200201A030020F0B53E4E85B0002211
:1012600003900C1C32703C4B914201D1012201E0F1
:101270003A490C801A707F231C4201D080349C4371
:10128000FFF77EFF3378C0B2002B07D00025357002
:10129000FFF776FF3378C0B2AB4236D1432803D094
:1012A000712853D01528EBD1012300930120FFF7BB
:1012B00055FF0098FFF752FF00998025C843C0B240
:1012C000FFF74CFF039B00270293244A1388002B4F
:1012D0001DD1214901930978002918D10198FFF700
:1012E0003DFF391C0198FFF779FF013D071C002DD8
:1012F000EBD1000AC0B2FFF731FFF8B2FFF72EFFC3
:10130000FFF73EFF3378002B0AD035701FE00299BB
:10131000013B09781380029B019101330293DDE7C1
:10132000C0B2062807D1009B03990133DBB280319C
:101330000093803C0391002CB8D10420FFF70EFFEE
:10134000FFF71EFF044B01251C7000E00025281C40
:1013500005B0F0BD190300201A03002096020020FA
:10136000F0B5384C87B0002301902370994201D129
:10137000012301E0344A1180344A6426137043206B
:10138000FFF7ECFE324FFFF7F3FE002803D1002FEA
:1013900003D0013FF7E7002F03D1013E002EEED12D
:1013A0004DE00125FFF7ECFE2378002B38D1C0B2C9
:1013B0000290012805D004283DD10620FFF7CEFE7B
:1013C00039E005AE0221301CFFF714FF019880219F
:1013D000FFF710FF23780390002B18D1FFF7D0FE02
:1013E0000702FFF7CDFEBFB223783F18BFB2012B33
:1013F0000DD0039B9F4207D13378AB4204D1EB431E
:101400007278DBB29A4204D01820FFF7A7FE0023BF
:1014100003E00620FFF7A2FE029B2278002A02D0FA
:10142000002626700BE0012B05D1019A6B1C80323F
:10143000DDB20192B6E7054A002313700126301C85
:1014400007B0F0BD19030020960200201A03002007
:1014500000350C0010B50023934203D0CC5CC4547B
:101460000133F9E710BD031C8218934202D01970B2
:101470000133FAE770470000F8B5C046F8BC08BC75
:101480009E467047F8B5C046F8BC08BC9E467047FB
:1014900012010002020000409A2314000002000022
:1014A0000001000008000000100000002000000003
:1014B0004000000080000000000100000002000069
:1014C000000400005D110000811100007111000096
:1014D000B5110000CF110000591200006113000087
:1014E00076002000417072203137203230313600D2
:1014F00032323A34393A313900580A0D00590A0D5E
:10150000005A00230A0D003E00322E300000000079
:101510007D0A0000990A0000B50A0000D90A0000FF
:10152000F50A0000D90A00001D0B00005B4172643F
:1015300075696E6F3A58595A5D00000021104220BB
:1015400063308440A550C660E770088129914AA1A4
:101550006BB18CC1ADD1CEE1EFF13112100273321B
:101560005222B5529442F772D662399318837BB3F4
:101570005AA3BDD39CC3FFF3DEE3622443342004AB
:101580000114E664C774A44485546AA54BB5288544
:101590000995EEE5CFF5ACC58DD5533672261116FB
:1015A0003006D776F6669556B4465BB77AA7199794
:1015B0003887DFF7FEE79DD7BCC7C448E558866883
:1015C000A7784008611802282338CCC9EDD98EE9E4
:1015D000AFF9488969990AA92BB9F55AD44AB77A5B
:1015E000966A711A500A333A122AFDDBDCCBBFFB34
:1015F0009EEB799B588B3BBB1AABA66C877CE44C6B
:10160000C55C222C033C600C411CAEED8FFDECCD83
:10161000CDDD2AAD0BBD688D499D977EB66ED55E3A
:10162000F44E133E322E511E700E9FFFBEEFDDDFD3
:10163000FCCF1BBF3AAF599F788F8891A981CAB15F
:10164000EBA10CD12DC14EF16FE18010A100C23091
:10165000E3200450254046706760B9839893FBA34C
:10166000DAB33DC31CD37FE35EF3B1029012F322E1
:10167000D2323542145277625672EAB5CBA5A8959C
:1016800089856EF54FE52CD50DC5E234C324A01431
:1016900081046674476424540544DBA7FAB799872C
:1016A000B8975FE77EF71DC73CD7D326F236910681
:1016B000B01657667676154634564CD96DC90EF974
:1016C0002FE9C899E9898AB9ABA9445865480678D1
:1016D0002768C018E1088238A3287DCB5CDB3FEB8C
:1016E0001EFBF98BD89BBBAB9ABB754A545A376A21
:1016F000167AF10AD01AB32A923A2EFD0FED6CDD5C
:101700004DCDAABD8BADE89DC98D267C076C645C70
:10171000454CA23C832CE01CC10C1FEF3EFF5DCF6B
:101720007CDF9BAFBABFD98FF89F176E367E554EC0
:10173000745E932EB23ED10EF01E00000000000039
:101740000100000009024300020100803209040088
:10175000000102020000052400100104240200051B
:10176000240600010524010001070583030800FF8A
:1017700009040100020A0000000705810240000080
:10178000070502024000000000C20100000008003E
:0C179000690000004100000000000000A3
:04000003000005BD37
:00000001FF
