:10000000FC7F0020C516000099010000950100004A
:1000100000000000000000000000000000000000E0
:10002000000000000000000000000000910100003E
:1000300000000000000000008D0100001101000020
:1000400010B5064C2378002B07D1054B002B02D0AE
:10005000044800E000BF0123237010BD5C000020B5
:10006000000000007C1F0000044B10B5002B03D0E3
:100070000349044800E000BF10BDC0460000000076
:10008000600000207C1F0000030010B50800110074
:1000900098476422014B1A8010BDC04678000020AA
:1000A000F0B5194B0A00997885B05C68002929D011
:1000B000042A1FD100680F263027520004AB9B187A
:1000C0000B3B9D1A01003140092919D83943197099
:1000D000013B00099D42F5D10A200C4B01A90B8080
:1000E0008B1898700330D8700432E068FFF7CCFFAB
:1000F00005B0F0BD022A01D10088DCE70078DAE71C
:100100003731E4E70100F0E77800002030780000A4
:100110001B4A1C4B117A002908D119785878091804
:100120008020C9B25970184940000860117A013125
:10013000C9B211725978F02902D85978092908D81A
:100140001978494249B21970197858780918C9B212
:100150005970117A5B78994203D180210A4B49008A
:1001600019601388002B03D01388013B9BB21380C6
:100170005389002B03D05389013B9BB253817047B5
:1001800078000020000000209C44004102BEFEE7F1
:1001900005BEFEE70DBEFEE70EBEFEE7074AFF30D6
:1001A00053699B0B9B035361022303728279823B49
:1001B00013438371037A9B07FCD570472C02002000
:1001C000802102000A4BC90100280ED099618021CC
:1001D000890199615961074B187B40008018064AD4
:1001E000800080581873C0B270475961EFE7C0466D
:1001F0000044004178000020AC1C00000C4B10B5FE
:100200001B7B082B10D00F2B0ED00120FFF7D8FF3F
:100210000120FFF7D5FF0120FFF7D2FF0120FFF7F4
:10022000CFFF0120FFF7CCFF0020FFF7C9FF10BD73
:10023000780000200D4B10B51B7B0F2B0AD0082B2C
:1002400008D00124A3420FD80020FFF7B9FF0020F7
:10025000FFF7B6FF0120FFF7B3FF0020FFF7B0FF65
:100260000020FFF7ADFF0024200010BD7800002023
:10027000074B10B51B7B01240B2B06D12000FFF789
:100280009FFF2000FFF79CFF0024200010BDC04608
:1002900078000020F0B587B003900020012604000C
:1002A0000700B4465E4001920596039B9F4201D130
:1002B00007B0F0BD002C04D1FF25002901D00D7836
:1002C00001316246184B40081E6AF60B1640F601D3
:1002D00030436646039A2E400496561E62460292AA
:1002E000BE4201D1059A0292049A002A18D08022B7
:1002F00052019A61029A002A03D08026B6019E61BB
:100300005E6107236D080134EDB21C4006D1019BEC
:10031000002B03D018702000013301930137C4E78C
:10032000802252015A61E5E700440041F7B50124FB
:100330006240019280220023520106009446180078
:10034000B34200D1FEBD0F4A2700156AED0B2540D0
:100350009D4028430D0025400095751E9D4200D10B
:10036000019F009D002D0AD065469561002F03D0A6
:100370008025AD019561556149100133E0E765467F
:100380005561F3E700440041154B10B51B7B040099
:10039000012B01D9FFF732FF0020FFF711FF0120E9
:1003A000FFF70EFF0120FFF70BFF0020FFF708FF0C
:1003B0000020FFF705FF012221000A20FFF7B6FF0A
:1003C0005623FF33984207D10120FFF7F9FE0120A1
:1003D000FFF7F6FE002010BD01204042FBE7C046BB
:1003E00078000020F7B50D4D0700EB7B0E202C7C2C
:1003F0000193FFF7C9FF061E0EDBFFF71BFF019BF2
:10040000611C9940E87BAB7B3943C0180122FFF7A0
:100410008DFFFFF72DFF6F743000FEBD78000020C8
:1004200037B505000020124B01905B7C0C00834225
:1004300018D10C20FFF7A8FFFFF7FCFE019B01A9D4
:100440009A00032313430193002320201A00FFF78F
:1004500021FF0023600102301A002900FFF71AFF74
:1004600020003EBDFFF7BEFF0028FADBE1E7C046F3
:10047000780000200222634BF0B51A708023624C92
:100480008027802680251B026360002385B0AD0194
:10049000FF017601A7600121A66003A8A560039370
:1004A000FFF7BEFF80235B05A3606361A761A661C0
:1004B0006561FFF7A3FE554D2B7B012B01D9FFF79B
:1004C0009DFE0020FFF77CFE0120FFF779FE012052
:1004D000FFF776FE0020FFF773FE0020FFF770FEA7
:1004E000012204210A20FFF721FF0120FFF768FE07
:1004F0000120FFF765FE9A27FFF79CFE80228023EC
:10050000FF3752019B01013F6261A3616361002FCC
:10051000F9D13A0039000120FFF708FF0400FFF786
:10052000A7FEFFF76BFE002C03D10120404205B06F
:10053000F0BD0E20FFF728FFFFF77CFE3A003900E0
:100540004020FFF7F3FEFFF793FE0C20FFF71CFFA0
:1005500008263C00FFF76EFE002204201100FFF782
:10056000E5FE24090007013E0443FFF781FEFFF783
:1005700045FE002EEED1FF2362032B746B74520DE7
:100580006E2AD2D131000120E20C009313406A732D
:10059000AE7301933200009BF7B21A4094460200FA
:1005A00063469A40019B0136934226DA002900D027
:1005B000AF730027EC736B7B9F42B6DA08260024EA
:1005C000FFF738FE002204201100FFF7AFFE2409D8
:1005D0000007013E0443FFF74BFEFFF70FFE002E1E
:1005E000EED1FF22E30C1340842B08D16403640D89
:1005F0006E2C04D12F74300099E70100CAE701374F
:10060000D9E7C0464F440041004400417800002033
:1006100003210A4B01405A68094809041040084365
:10062000084A5860D8694007C00F00D17047013AA6
:10063000002AF7D101204042F8E7C04600080042F6
:10064000FFFFFCFF52C30000F8B52A4D2A4A2900DB
:10065000937C2A485B00DCB26B8B9B069B0F012BC3
:1006600004D06B8B9B069B0F022B17D14B6ADB0AC6
:10067000DB0223434B620B7EDB0718D54B8B5B07FA
:10068000DB0F0ED118000127D47C002C13D10028D9
:1006900000D0D4740320FFF7BBFF06E00138831CB1
:1006A000DAD10320FFF7B4FF02242000F8BD01389F
:1006B000831CE0D1F5E7124D124E5D5D3570124D91
:1006C0000E7EF60707D54D8B01336D0706D4013C2E
:1006D000E4B23800D9E7013D002D07D1002800D051
:1006E000D4740320FFF794FF0324DEE74E8BF60754
:1006F000E6D5F3E7000800427800002050C3000070
:100700008C0000202808004252C3000010B56B2264
:100710000224044B9A741875DC745975FFF794FF22
:10072000200010BD780000206B2310B5234CA3746B
:100730006A3BE3742075FFF787FF002398422ED1B0
:10074000A0751F481F4A0300418B8906890F0129A4
:100750001CD1D720596AC90AC90201435962197EBE
:1007600089071ED55A8B520718D40122A2751A7E0A
:100770009207FCD5144A03201278E275802259684A
:10078000D2020A435A60FFF743FF07E0418B890614
:10079000890F0229DDD0013A911CD5D1E37D1800E3
:1007A00010BD013A911CF9D0197EC907D7D5C022D6
:1007B000596892020A435A60F0E7C0467800002068
:1007C0000008004250C300002808004237B5194C09
:1007D0000190637C0D00002B1FD10C20FFF7D4FD8E
:1007E000FFF728FD019B01A99A00032313430193FE
:1007F000002320201A00FFF74DFD637C012B12D14E
:100800000C20FFF7C1FDFFF715FD002320202A0073
:100810001900FFF73FFD002004E00020FFF7E2FD94
:100820000028DADA3EBD0120FFF7DCFD0028F9DB05
:10083000E6E7C0467800002013B50C00FFF7F0FD96
:100840000190A04215D180220C4B52050C4C9A61AC
:100850005A61013C002C0FD001A90020FFF7B6FF20
:10086000019B002BF5D101A90120FFF7AFFF0198F3
:1008700016BD0A204042FBE70120FBE7004400418F
:10088000EA030000F0B5124C0D00A544114B019095
:10089000029168460321160000930227FFF7CCFF60
:1008A000EC1CA4080134B90038006944FFF78EFF3E
:1008B0007B1E01379C42F6DC00231A006A44127B3F
:1008C000F2540133AB42F8D1034B9D44F0BDC04616
:1008D000FCFBFFFF0500000104040000F8B51A4FFF
:1008E00006003B7E08001400002B12D1174B184A5B
:1008F00018491A645A6C920B92035A645A6C0A4053
:100900005A64A22240235200B15C0B43B35401232A
:100910003B764825FF35735DDB07DB0F12D00B4AB2
:10092000536C9B049B0C9C4202D9546CA404A40CF1
:100930002200074901F069F90123735500233B7632
:100940002000F8BD1C00FBE7780000202C020020EE
:10095000EC010020FF3F00F013B56B46DC1D044B9B
:1009600001222100D869FFF7B9FF207816BDC046E3
:1009700078000020F7B5009001201C4D1C005B01A1
:1009800016000193EA18536910325B005B0F0333C2
:100990009840B04221D8802350681B06034353601F
:1009A0006301ED1829616B69B1049B0B890C9B03F2
:1009B0000B436B616B690E4908340B406B61009B04
:1009C00064011C190223E3716279823B1343637152
:1009D000E3799B07FCD53000FEBD064BA701FF184D
:1009E0003200380001F011F93900D9E72C0200205B
:1009F000FF3F00F02C01002010B50C000A000100A0
:100A000003480123C069FFF7B5FF200010BDC046B1
:100A100078000020012307B5019004481A0001A9BD
:100A2000C069FFF7A7FF01200EBDC0467800002077
:100A300010B50B4C0B4BA5440C000190110003A802
:100A400022000093029401F0E0F8E11C89080331D0
:100A50006846FFF7F1FE8023DB009D4410BDC046D1
:100A600000FCFFFF04000001F0B5CB4BCB4CCA48A3
:100A70005B68A54400AF28301B69402198470028D7
:100A800002D06423C44A5381C34BC34A98662833B7
:100A9000D36600231367C04B1B6FFB60BE4B9B6E7E
:100AA000BB60BA68FB68934200D3B2E1BA4BDB6E1D
:100AB000FB601B78FF2B63D0232B00D05CE3B64B8D
:100AC0009B78002B06D0B44B02225B68B449D868EF
:100AD000FFF7DAFAB04874300378532B5DD1AE4B90
:100AE000AD4A9B6E146FA3421FD9AB49926FC96E7A
:100AF00001344D1CF960A8491B1BCD660C6793425D
:100B000048D2CB67A44BA74EDB6F29001A00306890
:100B1000FB6001F07AF8FB68E4189F4B1C67FB68E8
:100B2000ED189D4BDD663B7B33719B4B9A4A1B6FE7
:100B30009949013B1367D36E896FFB60013BD36614
:100B4000984B1A798A420AD2891A934A18685268CD
:100B500092699047002802D064238F4A5381C0468F
:100B60007A228D4B74331A7000238B4A93679378E3
:100B7000002B05D053688C490122D868FFF784FA0E
:100B8000854B854A1B6F01331367D36EFB600133BE
:100B9000D36680E7804BDA67B4E7522B09D17E4BEE
:100BA0007D4A5B687F49926F09685869FFF76CFA64
:100BB000D6E74F2B07D1784A7A4B926F1B68FA60C1
:100BC0003A7B1A70CCE7482B07D1734A754B926F6A
:100BD0001B68FA60BA891A80C2E7572B06D1714B9D
:100BE0006D4A1B68926FFA601A60B9E76F2B05D1E6
:100BF00001216C4B1868FFF753FAB1E7682B07D156
:100C0000684B654A1B6804301B8802219367F2E732
:100C1000772B09D1634B04301B6804211B68FB60F0
:100C2000FA685D4B9A67E6E7472B19D15A4B996FE3
:100C300072B6EFF308825B4B9A600A6882F3088809
:100C40004A6810479A6882F3088862B61B7B002BBB
:100C500000D185E7504B06205B681B6898477FE70B
:100C6000542B0AD14C4A533B9370130002225B6809
:100C70004B49D868FFF708FA72E74E2B0ED1464B66
:100C80009B78002B06D1444B02225B684449D8680C
:100C9000FFF7FAF90023404A937061E7562B62D1BF
:100CA0003D4B01225B684149D868FFF7EDF93A4BAB
:100CB0003F4D5B6803222900D868FFF7E5F9364B02
:100CC0003C4C5B6801222100D868FFF7DDF9324B0C
:100CD000291D5B680D22D868FFF7D6F92E4B01223B
:100CE0005B682100D868FFF7CFF9002301202A4A6A
:100CF000844613671A0030494E1C8D5CB018002DD5
:100D00002BD1002B01D0244B1A67234B224AD866E3
:100D10005B68126FD868FFF7B7F91F4B01225B6859
:100D20002100D868FFF7B0F900231B4A012613679A
:100D30001A0022494D1C8C5CA818002C10D1002BE5
:100D400001D0154B1A67144B134AD8665B68126FB3
:100D5000D868FFF799F9104B88E701326346CCE772
:100D600001323300E7E7582B30D10E4A0A4B1069A5
:100D700052699B6F1249134C9200984204D8064B5B
:100D800003225B68104974E75D08CD610C800D7D1E
:100D9000ED07FCD59B18F0E7780000205CEFFFFF23
:100DA000541F0000F8000020571F00002C1F0000F7
:100DB000441C00002E1F0000301F00003C1F0000DC
:100DC0000040004102A5FFFF451F0000592B00D045
:100DD00041E1C94BC94A9B6F1468002B05D194614E
:100DE000C54B03225B68C64943E79B08FB609369D8
:100DF000BB608023DB029C4200D0C6E0FFF73AFBD9
:100E0000051E0AD0BC4B03225B68BE49D868FFF7B9
:100E10003BF9BD46BC4B9D44F0BD1023FE1832008B
:100E20009021BA48FFF72EFD08233E60BC68B84EFB
:100E30007B60220023002D322C3312781B781202A3
:100E40001A4323002E331B781B041A4323002F332D
:100E50001B781B06134351D06278237812021A4381
:100E6000A3781B041A43E3781B061343A84A536074
:100E70000122A24B1A770024BB6819190A000B0043
:100E80002932283312781B7812021A430B002A33B6
:100E90001B781B041A430B002B331B781B061343D0
:100EA000013305D01023FB181819302200F0ADFED5
:100EB0003034902CE0D110219022964B791889186B
:100EC00010200B60942102233818411810200B6069
:100ED000FF239821381841185B030B608018032109
:100EE000FFF7AAFC7134FF34FB68AB4240D81023F3
:100EF0009021FA188548FFF79BFD71E77A683B68F7
:100F00009B182200196A23002932283312781B7893
:100F100012021A4323002A331B781B041A432300AE
:100F20002B331B781B061343994201D04B1C17D15E
:100F30006278237812021A43A3781B041A43E378D9
:100F40001B0613437268934200D2736021007A68D3
:100F50003B6808319818202200F048FE002887D10D
:100F60007B68303430337B60982B00D061E782E7B8
:100F7000FF23DB02E818684B8000C218BB68210021
:100F80009A18FFF755FD8035AEE7644B9C4239D97E
:100F9000137F002B00D123E75D4B614A5B689B18F0
:100FA0001C19A3B2002B12D110219022594B791891
:100FB000891810200B6094210223381841180B6007
:100FC0009633C318032180181C60FFF735FCFB68BB
:100FD00080267F33DB095A02802320009B00E31820
:100FE000D318FB60B60080239B00C518FB689D42A8
:100FF00000D1F5E6BB6831001A18121BFFF718FD87
:101000002800F0E78020474B5968814359605169B7
:10101000454A89089446FA68002A00D1E0E6434A26
:101020001A801A7DD207FCD520000022BD6804007A
:10103000BD60914202D0FE68964208D16046188099
:10104000187DC007FCD5F868821AFA60E3E710CD76
:10105000013210C0EBE75A2B00D081E5264B9D6F83
:10106000264B1C688023DB029C423FD18026002453
:1010700076000CE010229023BA18D3181A19FF2317
:101080005B03E0183100FFF7FDFB0134FF34A5429C
:10109000F0D810229023BA18D4180026244A6519D3
:1010A000AC425FD1144B01225B682249D868FEF73D
:1010B000EBFF0F24072332002240D0B20100360993
:1010C0003031092A00DD07311022BA18D154013B12
:1010D000F1D21021084B08225B687918D868FEF716
:1010E000D3FF054B03225B681349C2E50B4B9C42BF
:1010F000D3D9002633E0C04678000020F800002055
:101100004D1F0000491F0000A410000000F01F0048
:1011100000000020030000010020E0FFFF0F04009A
:1011200000F0FBFF0040004104A5FFFF44A5FFFFC6
:101130002C1D0000511F0000531F0000102290239F
:101140008021BA18D3189A19244B49005868244BA7
:10115000C01820188019FFF795FB0136FF36AE4204
:10116000ECD396E72178330A4B405B0031029E5A5C
:1011700001344E40B6B293E71A00303AD1B2092991
:1011800007D8184B9B6FFB601B011343154A9367ED
:10119000F6E41A00413A052A05D8124A373B926F05
:1011A000FA601201F1E71A00613A052A05D80D4AE2
:1011B000573B926FFA601201E7E700222C2B08D10F
:1011C000084B9B6FFB60F968074B1960054B9A67EA
:1011D000D6E4044974310B70F8E7C04600000020E3
:1011E00000F0FBFF78000020F800002070B505003B
:1011F000C0B0080016000C0000F010FD6B46400067
:10120000023018706A46032376085370023B5A1E58
:10121000A15C5A00002901D09E4206DC00236946E9
:101220002800FFF7A7FB40B070BD6846013381522C
:10123000EDE7F7B5056808222900AB8B06001340DF
:10124000FF31002B27D080234020C024AA830932FD
:10125000AB724A7088714B71B34BB44D5A68A40598
:101260002A4022435A605A692A401443B04A5C61BA
:101270001A60B04AB04C1A615A6814408022920237
:1012800022435A605A68920B92035A6000234871B5
:1012900033713079FEBD10200A7A0242F9D0A44A97
:1012A000A64C1778087267775778A77797782784BE
:1012B000278CBC466046D7783F02074327841779BE
:1012C00067845779608C3F02074367849779A784C6
:1012D000D279A78C12023A434027A2844F71A27F91
:1012E000607F120202439648824200D1F2E026DC7F
:1012F0008020400082421CD00BDC812A04D0822A4C
:1013000000D1BEE0802A14D12100E38426310222DC
:101310004EE081235B009A4200D127E100DAF8E039
:10132000FF33FF339A4200D1CFE0864B9A4200D17F
:10133000EFE02023FF35AA791343AB71A9E7902191
:1013400009018A426CD017DCD021C9008A4222D020
:10135000882109018A4200D190E0A023DB009A4253
:10136000E7D12800FEF71AFF8023228C5B4213434B
:101370003268DBB293728CE7734B9A4200D1C8E0BB
:10138000D7DD724B9A4200D14DE1714B9A42D0D1D8
:10139000238C7371BDE0238C1B0A012B0CD112220C
:1013A000A38C934201D8A28C92B2002369491431D4
:1013B0002800FFF7DFFA6CE7238C1B0A022B09D108
:1013C0004322A38C934201D8A28C92B2624900239B
:1013D0000831EDE7238C1B0A032BAAD1238CDBB247
:1013E000012B16D0002B05D0022BA2D1A28C5B4979
:1013F000D2B211E057490422263101A800F005FCC1
:101400000422A38C934201D8A28C92B2002301A99A
:10141000CEE7A28C5249D2B22800FFF7E7FE38E7A8
:10142000238C28003371FEF7B9FEA0230322C021CC
:101430005B00EA543C4B3D485A6C890502400A4324
:101440005A644622FF32AF54464A30241A6490222E
:101450005200AC545A6B02401143922259638021CE
:101460005200A954404A1A63B0225200AF545A6F36
:1014700010405867B2235B00E9540AE7311D01228E
:1014800096E75022E384638C0F2013402200283219
:101490001370638C03406384638C032B15D813781B
:1014A000002B0BD0638C08335B01EB189B799B06F8
:1014B0002100DB0FE3842631002328E7638C083307
:1014C0005B01EB189B79DB06F2E720238A79134353
:1014D0008B71DEE68022638C0F21134022002832BC
:1014E0001370638C0B406384238C002B00D020E7A7
:1014F000638C002B00D11CE7638C032B00D918E709
:101500001378002B09D02022638C08335B01EB1881
:101510005A712800FEF742FEBBE6638C10220833A6
:101520005B01EB18F4E7C0462C020020FFFFFF8FA1
:10153000AC0100202C010020FF3F00F0F80000204B
:10154000020300000103000021200000A12100008F
:1015500021220000441C000000000020651F000044
:10156000591F0000EC0100206C0100208022638CD8
:1015700013402200283213700F22638C13406384BF
:10158000238C002B00D0D4E6638C002B00D1D0E656
:10159000638C032B00D9CCE6230028331B78002B67
:1015A00020D0638C08335B01EB189B799B06B0D588
:1015B000638C113208335B01EB181A71638C0833AA
:1015C0005B01EB18DB795B06A3D5638C2032083313
:1015D0005B01EB18DA71638C3E3A08335B01EB1860
:1015E0001A7196E7638C08335B01EB189B79DB0675
:1015F0008FD51022638C08335B01EB181A71638C52
:1016000008335B01EB18DB799B0600D481E7638C20
:10161000921808335B01EB18DA71638C1F3A0833B8
:101620005B01EB18DCE70822A38C934201D8A28C63
:1016300092B2024900234C31BAE6C04600000020B5
:10164000F8B50B4F060038001C300D00FFF7F1FD18
:101650002C00002808D1050008E022003100F869BC
:10166000FFF73CF9241A3618002CF6D12800F8BDF3
:101670007800002070B5084C050020001C300E00DA
:10168000FFF7D7FD03000020834204D03200290079
:10169000E069FFF723F970BD7800002010B5084C11
:1016A00020001C30FFF7C5FD03000020834205D059
:1016B0004823E269FF33D05CC007C00F10BDC046AD
:1016C000780000200D4A0E4870B5824206D10D4ABE
:1016D0000D4B002193420DD100F01AF80B4C002362
:1016E0009442F4D0D1188842F1D9E55804330D6002
:1016F000F8E702C39342FCD3EEE7C04600000020A7
:101700005C000020AC0200205C000020801F000074
:10171000F0B50B498BB00B6800AF013320D00948FE
:10172000094BC9B2C36200291AD1084B084A1B7879
:10173000DB07DB0F0ED011600123303003700FE0A8
:1017400000200000F80000200420000038040040C1
:10175000FC7F00201468DA498C4200D028E2136034
:101760001E22D8494B6893431C3A13434B6008230D
:10177000D549886903438B61D448D54B9882988AB0
:1017800010439882D8681042FCD00122D1480270E0
:101790000478144203D0447864B2002CF8DB0122B0
:1017A0008260427852B2002AFBDBCB4A4260427828
:1017B00052B2002AFBDB8222D2014280427852B22E
:1017C000002AFBDB80249A8CA2439A841022DC68D6
:1017D0001442FCD0C14ADA621022DC681442FCD008
:1017E0009C8CBF4A22439A841022DC681442FCD0AD
:1017F00002229C8C802522439A844022DC682C4261
:10180000FCD0DC681442F9D01022DC681442FCD011
:101810000023836043785BB2002BFBDBB14B43605A
:101820007B6043785BB2002BFBDB00230B724B72B7
:101830008B72CB7262B6AC4B438043785BB2002BA9
:10184000FBDB04230A6AA94C13430B6201232268C1
:10185000134323602368DB07FCD4E369DB07F9D477
:101860001423FF222360E36893431A00EF231343FA
:10187000E3600223226813432360E3699B07FCD4DF
:101880003022638B93431A00102313436383E5696B
:101890006D07ED0FFBD101260F200221944A13782A
:1018A00033431370934B1A7882431A701A780A43A1
:1018B0001A70914A1178314311701A7802401A70E7
:1018C000202219780A380A431A70FEF72DFF0028E3
:1018D0003BD0CE2101400520FEF718FF3000FEF777
:1018E00023FF30239843C1B23000FEF70FFF2800DA
:1018F000FEF71AFF782301009943483B1943C9B208
:101900002800FEF703FF2800FEF70EFF0721014322
:10191000C9B22800FEF7FAFE0220FEF705FF01001B
:1019200002203140FEF7F2FE0420FEF7FDFE032107
:101930000140982001439438FEF7E8FE0222236814
:1019400093432360E3699B07FCD40F226B49012575
:101950000B78604C1A4070231343694A0B7013785C
:101960002B43137080235B00A36080237A681B03E2
:1019700013436360FEF77EFD08232900F818BD605D
:10198000FEF75AFF000EB02804D02800FEF7FCFC3A
:10199000FEF750FC5B4D2B0030331B78002B0AD038
:1019A000594B1A6882F30888FF229343574A936081
:1019B000EB6A1B6818472023434A0F20D1690B4369
:1019C000D361012352490A781A430A70514A1178A7
:1019D0008143117006211678314311704E490E78FB
:1019E00033430B70137803401370602311780B435B
:1019F00013704A4B638063785BB2002BFBDB0123DF
:101A0000474E327813433370B378DB07FCD41F2181
:101A1000444A13685B0B0B408B4200D10523308D89
:101A2000414C0B409B0120400343338513689B0CC2
:101A30000B401F2B00D1023B1F20318D03408143FF
:101A40000B43338513680722DB0D13407A60934202
:101A500000D103230721328D0B4034491B030A4078
:101A600013437F2233853378314813403370042386
:101A70003278002113430C22337070623389934310
:101A8000338133890B3A934333817F3200F0A6F8D8
:101A90000021284C284BE6616362022321843278BE
:101AA0001A48134380223370C026244B52001A6018
:101AB000234A244B36065360036A1B021B0A43E089
:101AC0003581730700400041000400400C0600000F
:101AD00000080040000C004001050100B805FF7D32
:101AE000040A000000070300144000000008004240
:101AF0004844004134440041494400413D440041D0
:101B00005B440041F80000200020000000ED00E0F0
:101B1000584400413C440041594400410640000003
:101B200000500041246080003FF8FFFFFF8FFFFF5F
:101B30002C0200207800002033120000884400416D
:101B400010E000E0E70300003343036207230126AF
:101B5000916013602000636A1C309847002801D010
:101B6000194B1E70184B1B78002BF3D0174B1A0023
:101B70002C32626008224833BA1843CB43C243CBAD
:101B800043C203CB03C20821114A79189368743405
:101B90005B035B0F9B00CB586B61926892B253431F
:101BA0002B6100232B607A332370FEF75DFFFCE787
:101BB000084B013B002BFCD1074B1160013B002B74
:101BC000FCD11360B8E5C04629010020441C000088
:101BD00000400041C409000048E801000300121859
:101BE000934200D1704719700133F9E730B50024F2
:101BF000A24201D1002005E0035D651C0C5DA342FB
:101C000001D0181B30BD2C00F2E7002310B59A421A
:101C100000D110BDCC5CC4540133F8E70023C25C92
:101C20000133002AFBD1581E70470000F8B5C046AA
:101C3000F8BC08BC9E467047F8B5C046F8BC08BC66
:101C40009E467047322E30005B41726475696E6F3C
:101C50003A58595A5D00000012010002020000408B
:101C600041235600000201020001040309040000A0
:101C7000150A0000590900009D160000F90900002E
:101C800075160000F9090000411600000800000068
:101C90001000000020000000400000008000000054
:101CA000000100000002000000040000010000002C
:101CB0000000000001000000090000000300000017
:101CC0000000000004000000050000000400000007
:101CD00005000000060000000800000006000000EB
:101CE00007000000040000000800000001000000E0
:101CF000090000000A000000020000000B000000C4
:101D00000C0000000B0000000C0000000D000000A3
:101D10000F0000000D0000000E0000000B0000008E
:101D20000F00000001000000090000000000211069
:101D3000422063308440A550C660E7700881299135
:101D40004AA16BB18CC1ADD1CEE1EFF131121002DD
:101D500073325222B5529442F772D6623993188385
:101D60007BB35AA3BDD39CC3FFF3DEE362244334A9
:101D700020040114E664C774A44485546AA54BB5D5
:101D800028850995EEE5CFF5ACC58DD5533672267D
:101D900011163006D776F6669556B4465BB77AA725
:101DA00019973887DFF7FEE79DD7BCC7C448E558C9
:101DB0008668A7784008611802282338CCC9EDD975
:101DC0008EE9AFF9488969990AA92BB9F55AD44A1D
:101DD000B77A966A711A500A333A122AFDDBDCCBC5
:101DE000BFFB9EEB799B588B3BBB1AABA66C877CE9
:101DF000E44CC55C222C033C600C411CAEED8FFD15
:101E0000ECCDCDDD2AAD0BBD688D499D977EB66EBC
:101E1000D55EF44E133E322E511E700E9FFFBEEF64
:101E2000DDDFFCCF1BBF3AAF599F788F8891A98126
:101E3000CAB1EBA10CD12DC14EF16FE18010A10010
:101E4000C230E3200450254046706760B983989300
:101E5000FBA3DAB33DC31CD37FE35EF3B102901260
:101E6000F322D2323542145277625672EAB5CBA5CC
:101E7000A89589856EF54FE52CD50DC5E234C324B0
:101E8000A01481046674476424540544DBA7FAB7A0
:101E90009987B8975FE77EF71DC73CD7D326F23600
:101EA0009106B01657667676154634564CD96DC9EC
:101EB0000EF92FE9C899E9898AB9ABA94458654850
:101EC00006782768C018E1088238A3287DCB5CDB40
:101ED0003FEB1EFBF98BD89BBBAB9ABB754A545AA0
:101EE000376A167AF10AD01AB32A923A2EFD0FED0C
:101EF0006CDD4DCDAABD8BADE89DC98D267C076CF0
:101F0000645C454CA23C832CE01CC10C1FEF3EFFDF
:101F10005DCF7CDF9BAFBABFD98FF89F176E367E3F
:101F2000554E745E932EB23ED10EF01E7600200008
:101F300041756720203920323031380031313A3153
:101F4000373A333000580A0D00790A0D00590A0D4E
:101F5000005A00230A0D003E0041726475696E6FDD
:101F6000204C4C430041726475696E6F204D4B529A
:101F7000205669646F722034303030000000000059
:101F800001140000FFFFFFFF09024300020100806F
:101F9000FA090400000102020000052400100104F7
:101FA0002402000524060001052401000107058321
:101FB000030800FF09040100020A00000007058170
:101FC00002400000070502024000000000C20100BC
:0C1FD00000000800690000004100000053
:04000003000016C51E
:00000001FF
