:1000000000800020510E0000E10C0000E50C000013
:1000100000000000000000000000000000000000E0
:10002000000000000000000000000000E90C0000DB
:100030000000000000000000ED0C00009905000029
:10004000F10C0000F10C0000F10C0000F10C0000BC
:100050008D110000F10C0000F10C0000F10C00000B
:10006000F10C000065110000F10C0000F10C000023
:10007000C5040000F10C000079110000F10C000033
:10008000F10C0000F10C0000F10C0000F10C00007C
:10009000F10C0000F10C0000F10C0000F10C00006C
:1000A000F10C0000F10C0000F10C0000F10C00005C
:1000B00008B5064B064803331B1A062B00D808BDAB
:1000C000044B002BFBD09847F9E7C046A40500205D
:1000D000A40500200000000008B50748074B1B1AC4
:1000E0009B10DA0FD318591000D108BD044A002A1A
:1000F000FBD09047F9E7C046A4050020A4050020E6
:100100000000000010B5074C2378002B09D1FFF741
:10011000CFFF054B002B02D0044800E000BF0123B5
:10012000237010BDA405002000000000084F00004F
:1001300008B5094B002B03D00848094900E000BF6F
:1001400008480368002B03D0074B002B00D09847CA
:10015000FFF7C2FF08BDC04600000000084F0000C6
:10016000A8050020A00500200000000010B500290F
:1001700005D104481221044A044B054CA0470160F4
:1001800010BDC046F4470000284800001C4800008D
:100190006521000008B502480249034B984708BD95
:1001A000C0050020400700206D010000F8B5051CC7
:1001B0000F1C161E0BD000242B68395D1B68281CF1
:1001C0009847002805D00134B442F5D103E0101C53
:1001D00002E0201C00E0301CF8BDC0467047C0465D
:1001E00008B51830014B984708BDC04669080000A3
:1001F00008B51830014B984708BDC0464D080000AF
:1002000038B5041C0D1C00690D4B9847002811D00F
:10021000237D0020002B11D06034201C094B98470F
:10022000031C0020002B09D1201C291C064B9847D9
:10023000012003E02069291C044B984738BDC046C3
:10024000B90A00008D0800002D0800009D0A00007A
:1002500008B51830014B984708BDC0467908000022
:10026000F8B5041C0F1C00254560FA239B00836031
:10027000064B083303601830054EB047201C603031
:10028000B04727612575201CF8BDC04648480000CE
:100290001108000038B5041C00690949094B98474A
:1002A0002069094B9847094DC4235B00E95610208B
:1002B000074CA047D0235B00E9561120A04738BD6A
:1002C000A08601009D0C0000C909000068480000DC
:1002D00061130000F8B54F464646C0B4041C914671
:1002E000151C013500690122174B9847002823D0BF
:1002F0002B1C164A9046164F164E1AE0002D0BD1B5
:100300002069154B98472069124B984720690321B3
:100310000F4B98472B1C0CE02069C0472069022135
:10032000B8472069B047011C201C18300B4B984778
:100330002B1C5D1E002BE1D14B465D1BE8B20CBCB3
:1003400090469946F8BDC046350A0000010A0000F3
:10035000110A00001D0B0000F10900002D0800002B
:1003600010B50123014CA04710BDC046D5020000C6
:1003700010B5041CA823C1546030024B98470123D8
:10038000237510BD45080000F8B54F464646C0B479
:10039000051C00230375041C6034201C1C4B98476B
:1003A000042300282FD0A823E95C28690022194BD8
:1003B0009847002805D0164F174B9946174B98467B
:1003C0001CE028690321164B984702231BE02E6985
:1003D000201CC847C1B2301CC047002805D128697D
:1003E00003210F4B984703230DE0201C084B98472F
:1003F000002803D128690321094B9847201CB847DE
:100400000028E4D10023181C0CBC90469946F8BD86
:1004100069080000350A00004D080000810A00004C
:10042000110A000008B50121014B984708BDC046DC
:100430008903000038B5041C00691A4B984700284E
:100440002ED02069184B984700281AD02069174BE6
:100450009847011C201C1830154B98472069154BF4
:100460009847002804D12069134B9847002808D0EA
:10047000B023E558002D04D023689B68201C9847C2
:10048000A84720690D4B9847002809D020690C4BDC
:100490009847002804D0AC23E358002B00D098479D
:1004A00038BDC046CD0A0000E10A00001D0B000067
:1004B0002D080000ED0A0000F90A0000050B0000FD
:1004C000110B000008B50248024B984708BDC04612
:1004D000C40500203504000008B502480249034B5A
:1004E000984708BDC40500203007002061020000C5
:1004F00070B5104E301C1049104CA04710481149DF
:10050000A04711481149A04711481249A047124875
:100510001249A047124D281C1249A0471248311C0D
:1005200000220123114CA0471148291C2422232317
:10053000A04770BD3407002000080042A108000059
:1005400038070020000C00423C0700200010004249
:10055000300700200014004240070020001800422D
:1005600044070020001C004278060020FD0F000018
:10057000D4060020F8B5041E08D0054B1F68054EB0
:100580001D1CB0472B68DB1B9C42FAD8F8BDC04647
:1005900048070020A9050000024B1A6801321A60C2
:1005A0007047C046480700207047C046F0B5574620
:1005B0004E464546E0B480460E1C002400250F4AF6
:1005C00092460F4B9946424613191979301C0A225C
:1005D000D047071C301C2E21C847C719ED1901341C
:1005E000032CF0D14346D979301C0A22034B98479B
:1005F00028181CBC90469946A246F0BD050800008C
:10060000D106000030B503AC2478044D08350560F0
:10061000017142718371C47130BDC046E84C000065
:1006200010B582B000230093034800210022034C40
:10063000A04702B010BDC0464C07002005060000D0
:1006400038B50A4B98470120094B9847094B984702
:10065000094B9847094B002B04D01D1C064CA8479A
:10066000A047FCE7044CA047FDE7C046E9110000A5
:1006700075050000591400009114000000000000EE
:10068000F8B5071C002A0DD00D1C141C00263B6871
:1006900029781B68381C984736180135013C002C16
:1006A000F5D100E00026301CF8BDC04638B5051C69
:1006B0000C1E09D0081C054B9847021C2B685B6870
:1006C000281C211C984700E0002038BD5132000052
:1006D00008B503681B68984708BDC04670B5051C7F
:1006E0000D21044CA047061C281C0A21A047801994
:1006F00070BDC046D106000038B5041C034B9847B6
:10070000051C201C024B9847401938BDAD0600005F
:10071000DD060000F0B54F464646C0B48BB08146BA
:100720000D1C171C002209AB1A70012F00D80A27D4
:100730006C46233414498846281C391CC047031CC6
:100740007B43ED1AEDB2261C092D02D83035EDB2EF
:1007500001E03735EDB23570013C002801D0051CB1
:10076000EAE7002E0AD0301C084B9847021C494685
:100770000B685B684846311C984700E000200BB0CE
:100780000CBC90469946F0BD351500005132000072
:1007900070B5051C0C1C002A04D10368C9B21B6883
:1007A000984715E00A2A10D100290ADA2D21094BB1
:1007B0009847061C6142281C0A22074B984780195B
:1007C00006E00A22044B984702E0D2B2024B984757
:1007D00070BDC046D10600001507000008B5014BEA
:1007E000984708BD9107000008B5002A04D10368A6
:1007F000C9B21B68984702E0D2B2014B984708BDC6
:100800001507000008B5014B984708BDE90700002F
:1008100010B5041C00214022034B98470023236499
:100820006364201C10BDC046FD2B000010B5026C97
:10083000531C3F242340446C9C4201D081540364E8
:1008400010BDC0460023036443647047436C026CD0
:10085000934206D0C25C01333F210B404364101C1D
:1008600001E0012040427047026C436CD31A181E0D
:1008700000DA40307047C046436C026C934201D0AE
:10088000C05C01E0012040427047C046036C013368
:100890003F221340406CC01A43425841C0B27047D7
:1008A00001607047F0B54F464646C0B407AC2678A5
:1008B0000468A14627689C1E651EAC41E4B29207FD
:1008C0003A4327063A434D462A6002685068072596
:1008D0002940B501002C01D05C0300E0002429432D
:1008E0000B1C0343234353600CBC90469946F0BD58
:1008F00030B503681C681205C025AD032A402243A9
:100900000904C024A40221401143196003685A68F5
:1009100014435C6030BDC0460368196801220A4375
:100920001A6002681368D907FCD4D369D907F9D4CF
:100930007047C0460368196802220A431A600268B9
:10094000D3699907FCD4704702689369D907FCD52D
:100950007047C046036800225A837047036898694D
:100960004007C00F7047C046036898694003C00F36
:100970007047C046036898698003C00F7047C0463F
:1009800003689869C003C00F7047C0460368986A3F
:10099000C0B2704738B5041C0D1C034B9847236840
:1009A0001D85012038BDC04649090000036819684B
:1009B00001220A431A6002681368D907FCD4D3697C
:1009C000D907F9D47047C0460368196802220A4360
:1009D0001A600268D3699907FCD4538B30218B438A
:1009E00010210B4353830268D3695907FCD4704725
:1009F000036859688022D2020A435A607047C04691
:100A000003685968014A0A405A607047FFFFFBFFBC
:100A100010B50368032211400A045C6804492140B0
:100A2000114359600268D3695907FCD410BDC04610
:100A3000FFFFFCFF10B549001143CCB201688B6980
:100A40009B029B0F012BFAD14B6ADB0ADB0223438B
:100A50004B62002A04D102689369D907FCD507E0EC
:100A6000026893699907FCD5117E02230B43137624
:100A7000036898694003C00F0123584010BDC04669
:100A800028230268D15402689369D907FCD590697C
:100A90004003C00F012358407047C0462823026816
:100AA000D154026893695907FCD590694003C00F7F
:100AB000012358407047C04603681868C006400FBD
:100AC000053843425841C0B27047C04603681868B1
:100AD000C006400F043843425841C0B27047C04678
:100AE000036898694007C00F7047C046036898695B
:100AF000C007C00FC0B2704703689869C002C00F3A
:100B00007047C046036898698007C00F7047C046A9
:100B1000036898690003C00F7047C04602681368F5
:100B2000DB065B0F052B08D193699907FCD5936908
:100B30001902F9D5906AC0B201E0906AC0B270475C
:100B400030B5036824498B4210D024498B4210D021
:100B500023498B4210D023498B4210D022498B422B
:100B600010D022498B4210D0002510E00922142514
:100B70000DE00A2215250AE00B22162507E00C22BB
:100B8000172504E00D22182501E00E221925D0B208
:100B90001F21014001238B40191C154B196052B2D3
:100BA00092089200D218C0239B00D4580321084019
:100BB000C100FF2088408443201CC0248C40211C9D
:100BC0000143D1508023DA012A430A4B5A801A1C70
:100BD00013681904FCD430BD00080042000C004228
:100BE000001000420014004200180042001C0042A5
:100BF00000E100E0000C0040F0B5474680B4041C62
:100C00000D1C161C1F1C1C4A9047201C1B4A904799
:100C10002268AB001C210B407107090C0B431360C9
:100C2000842223689A75012D23D11020002E03D031
:100C30000320022E00D108202668114CA0478046D0
:100C4000381CA047011C0F4D4046A847071C0E4BFF
:100C50001868A047011C381C0C4B9847011CFE204B
:100C600080050B4B98470B49A8470B4B984780B220
:100C7000B08104BC9046F0BD19090000410B000092
:100C8000951E00001119000000000020C51600008C
:100C9000691B000000FF7F479516000038B5041C53
:100CA0000D1C0B4B9847201C0A4B984723681422B5
:100CB0001A6024686900084B1868084B9847421E60
:100CC000FF231A40E06898431043E06038BDC046F7
:100CD000410B0000AD0900000000002035150000A8
:100CE000FEE7C046FEE7C046FEE7C046FEE7C04658
:100CF000FEE7C046494B5A681E218A4302210A4337
:100D00005A60474B996908220A439A61454B464A03
:100D10009A82998A02220A439A82191C0222CB687B
:100D20001A42FCD00122414B1A7001211A680A4272
:100D300002D01A681004F9D401223C4B9A601A1CA4
:100D400013681904FCD43A4A384B5A601A1C1368C9
:100D50001804FCD48222D201344B5A801A1C136826
:100D60001904FCD42F4B9A8C80218A439A84191C35
:100D70001022CB681A42FCD02E4A2A4BDA62191C88
:100D80001022CB681A42FCD0264B5A6A92B22A49EA
:100D90000A439A84191C1022CB681A42FCD0214BBA
:100DA000596A89B202220A439A841A1C802140207F
:100DB000D3681942FCD0D3681842F9D019491022DF
:100DC000CB681A42FCD00022184B9A601A1C136898
:100DD0001804FCD4194A154B5A601A1C13681904DC
:100DE000FCD4104B196A164A0A401A621A6A80210A
:100DF0008A431A620D4B03229A60124A5A601A1CE7
:100E000013681804FCD4064B00221A725A729A72A4
:100E1000DA720D4A0D4B1A607047C046004000411F
:100E200000040040000800400C060000000C0040D8
:100E300001050100B805FF7D040A0000000703005A
:100E4000FFFCFFFF03060100006CDC020000002035
:100E500010B51C4B1C4A9A4228D0131C1B4A9A42BC
:100E600024D0184B184A9A420FD2194B1548033018
:100E7000C01A8008013080000023111C134AD45886
:100E8000CC5004338342FAD117E0124B124A9A42F3
:100E90000CD2124B0F490331C91A8908013189005C
:100EA000043BC918002204C38B42FCD10C4B984769
:100EB0000C4B98470C4B9847FEE7044B024A9A426A
:100EC000E3D1F3E7A4050020000000200C4F000050
:100ED0000400002020080020A4050020A805002010
:100EE00001250000F50C0000410600000A4B1B68BC
:100EF000002B02D1094A084B1A60074B1B681A18CD
:100F00000749914204DB101C034A1060181C01E0E1
:100F1000012040427047C0465407002020080020AE
:100F2000FF7F0020012040427047C04680239B0184
:100F30004B6000207047C04601207047002070477A
:100F400000207047012806D1002A0ADB131C013B50
:100F5000FDD2501C06E00922034B1A6001204042DA
:100F600000E000207047C0461C08002008B5011CA6
:100F70000148024B9847FEE7F84C0000F12C0000B6
:100F80007047C046012040427047C046012070476C
:100F900010B5041C0069034B9847201C1430024B09
:100FA000984710BD190900004508000008B5006900
:100FB000014B984708BDC0464909000008B51430E8
:100FC000014B984708BDC0466908000008B51430B9
:100FD000014B984708BDC0467908000008B5143099
:100FE000014B984708BDC0464D08000008B5006990
:100FF000014B9847012008BD95090000F8B5041C75
:101000000F1C161C1D1C00234360FA239B008360E9
:101010000D4B0833036014300C4B984727610C4F7D
:1010200073009B19DB00FB1808215956301C094E30
:10103000B0476B005B19DB00FF1808217956281CAC
:10104000B047201CF8BDC046184D00001108000034
:10105000684800006113000010B5041C00690F4BC4
:101060009847002807D020690D4B9847011C201C89
:1010700014300C4B984720690B4B9847002809D136
:1010800020690A4B9847002804D12069084B9847EB
:10109000002802D02069074B984710BD5D09000069
:1010A0008D0900002D080000690900007509000085
:1010B00081090000550900000F23081C98433038AF
:1010C000434258417047C046002070470F231940E3
:1010D000012905D002394B424B410220C01A00E0E1
:1010E00000207047F0B583B0041C0B1C151C006970
:1010F00001210022104EB047201C291C0F4B98479D
:10110000071C201C291C0E4B9847061C201C291C60
:101110000C4B984700902069391C0122331C0A4D62
:10112000A847206901210322084B98472069084BF2
:10113000984703B0F0BDC046F90B0000C91000008D
:10114000CD100000B9100000A5080000F108000053
:101150003509000008B51322014B984708BDC04669
:10116000E510000008B50248024B984708BDC0468C
:10117000780600205910000008B50248024B984735
:1011800008BDC046D406002059100000F0B54746FF
:1011900080B4134B1B68DA0118D58423114AD35845
:1011A000002B00D0984701220D4BDA700EE03B690E
:1011B0004646A640334204D02B68002B00D0984707
:1011C0003E61013408350F2CF1D106E0054D0435A0
:1011D0000024034F01239846E9E704BC9046F0BD84
:1011E000001800405807002038B5234B1868FA2132
:1011F0008900224B98470138214B98421FD8214B38
:101200005860214A106A0002000AC0210906014301
:10121000116200229A6007221A601C4B196AFC2294
:101220000A431A62196AFF2212020A431A62196AF1
:10123000A022D2020A431A620024154D00E0FEE704
:10124000201C0021A8470134132CF9D1114A124B5C
:101250005A80124BA422D2009A80C02252011A61F5
:1012600011229A7003225A70197802220A431A70C6
:101270009A691104FCD438BD000000203515000027
:10128000FFFFFF0010E000E000ED00E00004004080
:10129000A11200001E400000000C0040004000426F
:1012A00070B543001B18DB002B4AD3181B7A5BB2C6
:1012B00001334FD0012934D0002902D0022918D09F
:1012C00048E0254B42001118C900C9561418E40023
:1012D0001C196468C901214D49190C1940340225B3
:1012E00025701218D2009B185B6801229A404A6050
:1012F00030E0194B42001118C900C9561418E40017
:101300001C196468C901154D49190C19403406258A
:1013100025701218D2009B185B6801229A404A601F
:1013200018E00D4B42001118C900C9561418E4000A
:101330001C196468C901094D49190C1940342578F4
:101340000226B54325701218D2009B185B68012253
:101350009A408A6070BDC046684800000044004161
:10136000F8B543001B18DB00374AD3181B7A5BB271
:10137000013363D04B1CDAB20C2A62D89300334A93
:10138000D3589F4601235B425CE0092904D1002128
:101390002F4B9847002355E00A2904D102212C4BFA
:1013A000984700234EE000230B294BD10121284B05
:1013B0009847002346E043001B18DB00224AD3185D
:1013C0005B68DA071DD5204C45002A18D200125759
:1013D0005B08D2011F4E9219D31830331F780E01CB
:1013E0000F2139403143C9B219702818C0002418A0
:1013F0006368D3184033197801220A431A70002316
:1014000020E0114C45002A18D20012575B08D20187
:10141000104E9219D31830331E780F273940BE432F
:10142000314319702818C00024186368D31840335A
:10143000197801220A431A70002303E001235B425A
:1014400000E00023181CF8BD68480000484D00006B
:10145000A11200000044004110B5074C201CE121FE
:101460004902064B9847201C0549064B98470648F9
:10147000064B984710BDC046D40600205511000009
:101480007C4D0000F9060000C40500209502000014
:10149000F8B5194C201C4F21184B9847201C0021EF
:1014A000174B9847201C174B98476420164B9847BA
:1014B000201C4F210222154B9847154D281C0D2149
:1014C000144B9847281C1449144B9847201C144F60
:1014D000B847144E3070201CB847C0B2124B187079
:1014E000C00131780143C911104B1980281C0A2210
:1014F0000F4B9847F8BDC046C4050020710300009B
:1015000001020000250400007505000061030000D1
:10151000D4060020D1060000884D0000AD06000072
:10152000F1010000E0070020E4070020E2070020AE
:10153000DD070000002934D00123002210B48842C6
:101540002CD301242407A14204D2814202D20901F2
:101550001B01F8E7E400A14204D2814202D2490013
:101560005B00F8E7884201D3401A1A434C08A042B6
:1015700002D3001B5C0822438C08A04202D3001B4C
:101580009C082243CC08A04202D3001BDC08224363
:10159000002803D01B0901D00909E3E7101C10BC87
:1015A0007047002801D00020C04307B4024802A1C0
:1015B0004018029003BDC046D90000000029F0D0B9
:1015C00003B5FFF7B9FF0EBC4243891A1847C0465E
:1015D000002941D010B4041C4C40A4460123002231
:1015E000002900D54942002800D5404288422CD32A
:1015F00001242407A14204D2814202D209011B0125
:10160000F8E7E400A14204D2814202D249005B0023
:10161000F8E7884201D3401A1A434C08A04202D38B
:10162000001B5C0822438C08A04202D3001B9C08CC
:101630002243CC08A04202D3001BDC08224300282E
:1016400003D01B0901D00909E3E7101C6446002CF4
:1016500000D5404210BC7047002806D003DB0020B4
:10166000C043400801E08020000607B4024802A100
:101670004018029003BDC046190000000029EBD0BD
:1016800003B5FFF7A7FF0EBC4243891A1847C046AF
:101690007047C0469E2110B5C905041C00F07AFCB5
:1016A000002803D1201C00F0D5FB10BD9E21C905E8
:1016B000201C00F059FA00F0CDFB80231B06C01857
:1016C000F3E7C046F0B55F4656464D464446F0B493
:1016D00046024500C00F85B00F1C760A2D0E8046CD
:1016E00041D0FF2D26D08024240400212643F6007B
:1016F0007F3D89468B46F90F7C027800640A000E14
:1017000000918A463CD0FF2834D080231B041C4320
:101710000023E4007F380193009F4346019A7B40F9
:1017200049469C4611430F2900D970E0754F890046
:101730007F58BF46002E3ED10822022391469B4689
:10174000D9E75A46341CC24601920199022937D082
:10175000032900D1CEE0012900D0AAE053460B4076
:101760000022002632E0002E19D1042101228946F0
:101770009346C0E7221C531E9A4102320192CBE7E6
:1017800001270197002CC7D0201C00F00DFC431F3F
:101790009C4076235B420021181A0191BCE7301C63
:1017A00000F002FC7625431F9E406D4200232D1A57
:1017B00099469B469FE70C23032199468B469AE75F
:1017C000D446012367463B40FF2200267602D2051D
:1017D000700ADB071043184305B03CBC904699469D
:1017E000A246AB46F0BD0023474EFF22EEE70022A3
:1017F0000026EBE78020C00306423BD0044239D1EB
:10180000061C26437602760A009BFF22DEE7281A92
:10181000039076016401A64239D3361B1A220123B4
:101820000120311C5B007600002901DBB44201D8A5
:10183000361B0343013A002AF3DC741EA641341C14
:101840001C43039A7F32002A27DD630704D00F234D
:101850002340042B00D00434270103D52B4B039ADB
:101860001C408032FE2A0BDD012361460B40FF2223
:101870000026ABE706437602760A4346FF22A5E739
:10188000A40101236746660AD2B23B409EE7039F4C
:101890001B22013F03970023C2E77E23039F5B4285
:1018A000DB1B1B2B07DD012361460B4000220026BA
:1018B0008CE7D446C5E7221CDA40039B9E339C404C
:1018C000231C5C1EA34113435A0704D00F221A4065
:1018D000042A00D004335F0105D5012361460B4083
:1018E0000122002672E79E01624601231340760A18
:1018F00000226BE78026F60326437602760A5346DB
:10190000FF2263E7984D0000FFFF7F00FFFFFFF716
:10191000F0B55F4656464D464446F0B44402460094
:1019200083B00F1C640A360EC50F002E41D0FF2E67
:1019300022D080231B0400201C43E4007F3E82460B
:101940008046391C4B007F02C90F7F0A1B0E8B4655
:101950003BD0FF2B34D0802212041743FF007F3B83
:1019600000215A466A40019252460A430F2A62D821
:101970007A48920082589746002C3FD108220223D1
:1019800092469846DDE70195404602282AD1019A01
:1019900001251540FF2300246402DB05600AED07E2
:1019A0001843284303B03CBC90469946A246AB4638
:1019B000F0BD002C27D10420012282469046C0E7CA
:1019C000391C4A1E91410231CBE70121002FC8D0BA
:1019D000381C00F0E9FA431F9F4076235B421B1A34
:1019E0000021BEE7032800D1ADE001284ED10198C7
:1019F00042461040C5B200230024CDE70C2303204B
:101A00009A4680469DE7201C00F0CEFA7626431FBA
:101A10009C4076420023361A9A46984691E7002564
:101A20004F4CFF23B8E75B463C1C01938846ABE76D
:101A30003C1C8846A8E7250C24043A0C240C3F04DF
:101A4000F6183F0C211C231C794353436F43554325
:101A5000FB180A0C9B18B1469F4202D98022520201
:101A6000AD1809041A04090C521894011B0C611ECC
:101A70008C41920EED181443AD012C43230105D582
:101A8000012263080120144081441C434B467F33EC
:101A9000002B2DDD600704D00F222240042A00D045
:101AA0000434220103D52F4B1C404B468033FE2BC0
:101AB00017DD019B01251D400024FF236CE78020DA
:101AC000C003044208D0074206D1041C3C43640210
:101AD000640A5D46FF235FE704436402640AFF2350
:101AE0005AE70198A4010125640ADBB2054053E7D7
:101AF0007E235B424A469B1A1B2B05DD019B012579
:101B00001D400024002347E7221CDA404B469E3349
:101B10009C40231C5C1EA3411343580704D00F2292
:101B20001A40042A00D004335A0105D5019B01252F
:101B30001D40002401232FE701989C010125640A20
:101B40000540002328E78027FF03019B3C436402F4
:101B500001251D40640AFF231EE7C046D84D000042
:101B6000FFFF7F00FFFFFFF7F8B5C20F43024400FD
:101B70004D024800240E161C9B09000EC90FAD092A
:101B8000FF2800D183E0012779408A425CD0221AE5
:101B9000002A00DC8EE000281ED1002D00D07AE063
:101BA000580704D00F221A40042A00D004338021A1
:101BB000C90401221940324000293AD00134FF2CD7
:101BC00000D183E09B015B0A5B02E4B2E405580AA2
:101BD000D20720431043F8BDFF2CE1D08021C90477
:101BE0000D431B2A00DD2FE1291C2020D140821A41
:101BF00095406A1E95410D435B1B5801D0D59B0152
:101C00009F09381C00F0D0F9421F974094425FDCD6
:101C1000141B1F231B1B3A1C9F40611C3B1CCA400A
:101C20005F1EBB4113430024BAE7131EB8D1002343
:101C30000022DB08FF2C04D1002B47D08020C003FA
:101C400003435B025B0ABFE7211A002944DD002839
:101C500027D0FF2CA4D08020C00405431B2900DD21
:101C6000F0E0281C2027C840791A8D40691E8D415C
:101C700005435B19590100D492E70134FF2C59D078
:101C8000724901221A400B405B08134388E7002D7C
:101C900000D07AE777E7013A002AADD0FF2CA0D137
:101CA0007EE7002D00D17BE701390029E1D0FF2C30
:101CB000D4D175E7002A1BD1621CD2B2012A4ADDB9
:101CC0005F1B7A0123D5EF1A0E1C9AE700237BE7EE
:101CD0005E4BA41A3B4063E7002945D1611CC8B2A2
:101CE000012829DDFF2924D0EB185B080C1C57E7DD
:101CF000002C13D0FF2818D08024E4045242234340
:101D00001B2A4CDD0123EB1A041C0E1C75E7002F67
:101D100000D076E70023002200248AE7002B3AD087
:101D2000D243002AEFD0FF28EAD12B1CFF240E1C3F
:101D300036E7FF2400237CE7002C5BD1002B7FD00B
:101D4000002D00D12CE75B19580100D428E73F4A49
:101D50000124134024E7002C15D1002B40D1002D85
:101D600062D02B1C0E1C1BE7002C21D1002B54D061
:101D7000C943002904D0FF284CD01B2957DD01237B
:101D80005B19041C76E7002B19D1002D48D02B1CC1
:101D90000E1CFF2404E72B1C041C0E1C00E71C1C5B
:101DA0002026D440B21A93405A1E93412343AAE7F7
:101DB000FF282FD08024E40449422343DDE7FF2499
:101DC000002D00D1ECE68022DB08D203134204D0C0
:101DD000ED08154201D12B1C0E1CDB00FF24DFE6B1
:101DE000002D00D1DCE65A1B500100D41DE7EB1A90
:101DF0000E1CD5E6002B0DD0FF24002D00D1CFE620
:101E00008022DB08D2031342E7D0ED081542E4D16B
:101E10002B1CE2E72B1CFF24C2E62B1C041CBFE694
:101E200000220B4BFF2404E7231C002201E71C1CAB
:101E30002027CC40791A8B40591E8B4123439FE7C2
:101E40002B1CADE6012514E70125D5E6FFFFFFFBBE
:101E5000F8FFFF034302590A4300C20F1B0E002084
:101E60007E2B0DDD9D2B0CDC802000040143952B87
:101E70000ADC9620C31AD9404842002A00D1081C27
:101E80007047034BD018FBE7963B9940F4E7C046F8
:101E9000FFFFFF7F10B5041E33D000F085F89E23AE
:101EA0001B1A962B09DC083884406402640ADBB2F2
:101EB0006402DB05600A184310BD992B0ADD052278
:101EC000121A211CD1400A1C011C1B318C40611EBE
:101ED0008C411443052801DD421F9440144A2240DE
:101EE000610704D00F210C40042C00D004325101B2
:101EF0000AD59F23181AFF2816D09401640AC3B28A
:101F0000D6E700230024D3E7D208FF2B03D05402E6
:101F1000640ADBB2CCE7002A06D08024E403144331
:101F20006402640AFF23C3E7FF230024C0E7C0461E
:101F3000FFFFFFFB8446081C6146FFE71FB500F06A
:101F4000C1F8002801D40021C8421FBD10B500F01F
:101F500049F84042013010BD10B500F0B3F8002838
:101F600001DB002010BD012010BDC04610B500F0FF
:101F7000A9F8002801DD002010BD012010BDC046D9
:101F800010B500F057F8002801DC002010BD01203A
:101F900010BDC04610B500F04DF8002801DA002051
:101FA00010BD012010BDC0461C2101231B04984216
:101FB00001D3000C10391B0A984201D3000A0839DA
:101FC0001B09984201D30009043902A2105C401891
:101FD0007047C04604030202010101010000000035
:101FE000000000004A02430270B55C0A550A430033
:101FF0004A001B0EC60F120EC90FFF2B05D0FF2A79
:1020000008D0012093420BD070BD0120002CFBD1E1
:10201000FF2AF6D10120002DF6D101209342F3D101
:10202000AC42F1D18E4203D0002BEDD1002CEBD18C
:102030000020E9E74A024302F0B55C0A550A430072
:102040004A001B0EC60F120EC90FFF2B26D0FF2A07
:1020500029D0002B0CD1604260418446002A0AD06E
:10206000002816D18E4221D0002E14D1012014E078
:10207000002AF7D194466F426F416046002805D18F
:10208000002FEFD00120002E07D004E00020002F09
:1020900003D10029EAD101204042F0BD002CD6D066
:1020A00002204042F9E7002DD3D0F9E79342DBDC70
:1020B00004DBAC42D8D80020AC42EED2002EEAD0ED
:1020C0000120EAE74A024302F0B55C0A550A4300E0
:1020D0004A001B0EC60F120EC90FFF2B26D0FF2A77
:1020E00028D0002B0FD0002A14D194466F426F41A4
:1020F0006046002814D00020002F03D100290DD104
:1021000001204042F0BD604260418446002AEDD08B
:102110000028F3D18E4211D0002EF1D10120F1E739
:10212000002FF7D00120002EECD0E9E70220002C90
:10213000E8D1D4E70220002DE4D1D2E79342EBDCD2
:1021400004DBAC42E8D80020AC42DBD2002ED7D072
:102150000120D7E708B5062001F030F80120FEF78E
:1021600005FFC04630B5051C094885B00068C06849
:10217000002A0AD0074C0091029207491A1C0194C8
:102180002B1C00F01FF8FFF7E5FF044C221CF2E7C0
:1021900004000020184E0000284E0000104D0000E2
:1021A00008B5131C0022FFF7DDFFC0460CB400B5D4
:1021B00083B004AB04CB019301F0A8FA03B008BCD0
:1021C00002B018470EB400B582B003AB04CB054A89
:1021D000011C1068039A019301F098FA02B008BC40
:1021E00003B0184704000020F0B5564644465F4649
:1021F0004D46F0B485B0039090680C1C92460028C0
:1022000024D08B89190729D52269002A26D0574660
:102210003E68B34698072ED5B64900260025884665
:10222000002D65D0216A2B1E434500D9B14B039880
:10223000321CA76AB847002800DC80E05146896854
:1022400036182D1A5246081A9060E9D1002005B0C0
:102250003CBC90469946A246AB46F0BD0398211C73
:1022600001F03EFC002800D03BE157463E68A389C0
:10227000B3469807D0D4DE0768D50026002701961C
:10228000B1460025002D2AD0019E002E00D1AFE0DE
:10229000B846AF4200D9A846206821694646A268E0
:1022A0006369884204D9D2180292904500DDF0E0BB
:1022B000984500DA80E0A66A0398216A4A46B0474A
:1022C000061E3CDDBF1B00D185E050468068B1444E
:1022D000AD1B5146861B8E60B8D0002DD4D15B4615
:1022E00008261A68B344002691465D680196C9E73E
:1022F0005A460823166855689B4491E7206823696D
:10230000984204D86669B146B54200D3ADE0A9460B
:10231000454500D9C14601994A4600F01DFC266892
:10232000A0684946321C431A4A44A3602260002B2D
:1023300040D10398211C01F0FDFC00283AD0A2896D
:10234000402313430120A381404280E7002600255B
:1023500001965F46002D28D0A06880218900804624
:102360000B42CBD085423FD39022D20013424CD1B6
:102370002068C14601994A4600F0EEFBA068226839
:102380004146431AA360131C4B4423602A1C504649
:10239000019E8068B618AD1A5146821A01968A606D
:1023A00000D153E7A389002DD6D13E687D68019600
:1023B0000837CFE74A46EAE74946424600F0CCFBF9
:1023C000A06822684146431AA360131C434423605B
:1023D000BF1B00D079E70398211C01F0ABFC00285B
:1023E000ADD10023019370E7A8462068A946C1E754
:1023F00048460A212A1C00F02BFB00286DD0471C00
:10240000012648463F1A019642E762692169500059
:1024100082182668D00F8218761A52109146321C04
:1024200001325219B346914543D29146580543D5DE
:102430000398111C00F088F88046002854D05A46B2
:10244000216900F047FBA2892B4B134080221343E4
:10245000A38140464A465E462061931B5844206053
:102460006261A846A360A94684E72449281E8842E1
:1024700000D9081C4946FFF7ABF84B464343216A95
:102480000398019AA66AB047002800DC57E7021CAF
:102490007DE7494600F060FB2268029E039893198D
:1024A0002360211C01F046FC002800D047E7029E73
:1024B00008E74A465805BBD4039800F035FC80462F
:1024C0000028C6D10398216901F08CFEA2898023DF
:1024D000039F9A430C233B6032E701266F1C019651
:1024E000D6E601204042B2E6039E0C233360A28967
:1024F00026E7C04600FCFF7F7FFBFFFFFFFFFF7F5B
:1025000070B50D4E0D4D0024AD1BAD1005D0A300D0
:10251000F35801349847A542F9D102F05FF9084E0B
:10252000084D0024AD1BAD1005D0A300F3580134B5
:102530009847A542F9D170BD880500208805002084
:10254000880500209C050020F0B5564644465F46AD
:102550004D46F0B40C1C0B3483B0061C162C2BD942
:1025600007239C432BD4A14229D8301C00F0A4FBA4
:10257000F823FF339C4226D8E208CC4DD300EB1859
:10258000DF689F4200D1B9E178680323FA68B9682F
:1025900098433B18CA609160596801220A43301C75
:1025A0005A6000F08BFB381C083003B03CBC9046EE
:1025B0009946A246AB46F0BD1024A142D5D90C23C2
:1025C00033600020F1E7630A00D18EE0042B00D9CC
:1025D00040E1A30938339C465900B44D890069187D
:1025E000CF68B94215D07A6803239A43101B0F288D
:1025F00000DD8DE000287CDA032007E07A68824362
:10260000131B0F2B00DD83E0002B72DAFF68B94249
:10261000F4D1012294442B1C2F6908339F4200D12E
:1026200061E1786803229043021C011B0F2900DD41
:1026300048E16B612B6100295FDA9D4B984200D91C
:1026400012E1C3089A100121DB00EB189140686881
:102650000A1C99680243FB60B9606A609F60CF60A2
:1026600061468B1001219940914255D811420DD1FC
:10267000032360469843031C043349009C461142DF
:1026800004D1042349009C441142FAD0032080461F
:102690006246D3005B199A46181CE146C768B842E7
:1026A00007D122E1002B00DB31E1FF68B84200D105
:1026B0001BE17A6843469A43131B0F2BF2DD01217D
:1026C0003A190C437C60F868BC680835E06019432F
:1026D0008460EA60AA60301CD56095605160D35078
:1026E00000F0ECFA381C08305FE73F227E21944668
:1026F00073E7FB68B968CB609960BA185168012329
:102700000B43301C536000F0D9FA381C08304CE7FA
:102710000120404284447CE7AF68032378689843F3
:102720008146A04203D3031B0F2B00DD84E0494602
:102730007918604A01916049106892468A682318A6
:102740008B46013200D144E15C481B181B0B1B0374
:1027500000930099301C00F097FC011C8046013169
:102760005FD0019A824200D9E8E05146009849685A
:102770005246431801985360404500D132E15A4611
:102780009268013200D140E1019841460A1A9B1833
:1027900051464B6007234246134000D101E1D21A53
:1027A00008329046464AD31A0098021C4244120549
:1027B000120D9A1A111C301C934600F065FC411C46
:1027C00000D11EE14246801A584401231843524664
:1027D00051680B1C5B444146A96053604860AF429E
:1027E00013D04A460F2A00D8E6E04A467868072107
:1027F0000C3A8A4301210140114379600520B91840
:10280000486088600F2A00D903E15246D26A934299
:1028100001D95046C3625146096B8B4201D95246D9
:102820001363AF6803237A689A43131B944200D959
:10283000A9E00F2B00DCA6E00122211C11433C196A
:1028400013437960301CAC60636000F037FA381CC9
:102850000830AAE6142B69D9542B00D998E0230B31
:102860006E339C465900B8E6430A042B62D9142BF8
:1028700000D9B1E0191C5B31480080004019836821
:102880008146834200D18FE0032188465968404643
:1028900081438A4202D29B689945F7D1D9686A6818
:1028A000F960BB608F60DF60DAE6C046F8000020A8
:1028B000FF010000E8070020F80400200F100000CE
:1028C0000810000001203A19044308437C606A6143
:1028D0002A615060D3609360301C515000F0EEF9D3
:1028E000381C083061E66A68BAE601229144434622
:1028F0004A460830134200D0D0E62CE03B1C7F69EA
:10290000023208339446BB4200D184E63CE6BA1852
:102910005068012303435360FB68BA68301CD360DE
:102920009A6000F0CBF9381C08303EE65B339C46D9
:10293000590052E68109383148009EE7AF4200D085
:102940006FE712E75346186801225242083B94444D
:102950008246984277D1434660460342F2D16B6883
:102960008B436B604900994200D9D5E6002900D11C
:10297000D2E6CC46194200D08AE6042249009444AB
:102980001942FAD084E6301C00F098F900200CE6D9
:10299000AA225200934214D8E30B77339C46590085
:1029A0001BE680235B01FFE68910686801228A40EC
:1029B00002436A60191C73E701234B6047460022FB
:1029C00033E7224A934218D8A30C7C339C46590023
:1029D00003E610330093BCE6542B22D8010B6E3172
:1029E00048004AE7020500D0C9E60099AA68081C19
:1029F000484401210143516007E77E23FC219C46A6
:102A0000EBE5002301209B46E1E643465846836000
:102A1000C0E6391C0831301C01F0E4FB51464B681C
:102A2000F3E6AA2149008B4203D8C10B7731480055
:102A300023E706498B4203D8810C7C3148001CE710
:102A4000FC207E2119E76B688CE7C0465405000026
:102A5000F0B5CCB2830737D0531E002A1FD00278BE
:102A6000A2421DD0032505E0002B18D00278013BBF
:102A7000A24215D001302842F6D1032B11D8002BE9
:102A80000DD00278A2420BD0421CC31804E00132E0
:102A9000511E0978A14203D0101E9842F7D10020A0
:102AA000F0BDFF2631400E0231430E04074D0E43A8
:102AB0000268074F7240D11991432942DFD1043B8C
:102AC0000430032BF4D8DAE7131CD6E7808080802B
:102AD000FFFEFEFEF0B50F2A35D9031C0B439C0701
:102AE00035D1161C103E36093501451910350C1C20
:102AF000031C27681F6067685F60A7689F60E768BE
:102B00001034DF601033AB42F3D1731C1B01C518C6
:102B1000C9180F231340032B1BD91C1FA408013411
:102B2000A4000023CE58EE500433A342FAD1ED188E
:102B3000C91803231A4005D00023CC5CEC540133A0
:102B40009342FAD1F0BD051C002AF5D1FAE7051C25
:102B5000F2E71A1CF8E7C046F0B588420ED98D1886
:102B6000A8420BD28618531E5142002A05D06A187B
:102B7000D45C7218D454013BF9D2F0BD0F2A09D8A5
:102B8000051C002AF9D00023CC5CEC54013393429D
:102B9000FAD1F2E7031C0B439C072AD1161C103E06
:102BA00036093501451910350C1C031C27681F60B8
:102BB00067685F60A7689F60E7681034DF60103364
:102BC000AB42F3D1731C1B01C518C9180F23134066
:102BD000032B10D91C1FA4080134A4000023CE58D5
:102BE000EE500433A342FAD1ED18C91803231A405A
:102BF000C7E7051CC7E71A1CC3E7C046F0B54F4638
:102C00004646C0B483B0830752D0541E002A4AD02F
:102C1000CEB2031C032503E0621E002C43D0141C1B
:102C200001335A1E16702B42F6D1032C33D9FF25DF
:102C30000D402A0215432A0415430F2C1AD9271CCC
:102C4000103F3F09B9463F01B8461027FF18BC4660
:102C500046461A1C6644156055609560D560103272
:102C6000B242F8D14F4601373F010F22DB19144021
:102C7000032C10D9271F1E1DBF080196BE00B446A5
:102C8000019E1A1C664420C2B242FCD10137BF002B
:102C90000322DB191440002C05D0C9B21C1919708D
:102CA0000133A342FBD103B00CBC90469946F0BD62
:102CB000031C141CB9E7C0467047C0467047C046A5
:102CC0000EB410B5041C83B0002804D08369002B17
:102CD00001D101F0B3F806ABA168201C059A01935D
:102CE00000F014FD03B010BC08BC03B01847C04688
:102CF0000FB410B50B4B82B01C68002C05D0A36933
:102D0000002B02D1201C01F099F805ABA168201C12
:102D1000049A019300F0FAFC02B010BC08BC04B0A5
:102D20001847C04604000020F0B54D4644465F46B3
:102D30005646F0B4804685B00D1C914600D1DDE0CA
:102D40002E1C083EFFF7B8FF73684F4603221C1C79
:102D50000B37B3469443162F00D976E0102001902C
:102D60001027B94500D975E0019A944256DAC54852
:102D7000321980680390904200D1C3E05168081C6A
:102D80008A4601218843844694446146486801216B
:102D9000084264D000200022D90700D586E03368BD
:102DA0000321F31A8C4659689A46634699438C4628
:102DB000002A00D1DFE003998A4200D1DEE06146BB
:102DC0000B190199C018039088426ADBD368926896
:102DD000D3609A605246D36892685646D3609A6030
:102DE000221F0836242A00D9BBE0331C132A0AD933
:102DF0002B68504683606968C1601B2A00D905E1D1
:102E00005346103308352A6851461A606868039C97
:102E10005860AD68D3469D604B68351CE21B0F2A95
:102E20002CD8012213402343584643605C44616818
:102E30000A4362604046FFF741FF281C05B03CBCD6
:102E400090469946A246AB46F0BD072297430197AC
:102E500000D486E70C2341460B600020EEE70320F8
:102E600051468143081C09198C4601998C4593DB16
:102E7000D16892686446D1608A60CFE75846C1192C
:102E8000012003401F435B465F60131C03438A1805
:102E90004B605368083118435060404601F0A2F976
:102EA000C8E7039303980199884293DA494640465C
:102EB000FFF74AFB8146002800D1D5E07368021C69
:102EC0000121181C8843083A3618B24200D198E014
:102ED000221F242A40D8132A22D84B462A1C1068C5
:102EE00018605168596092689A604046291C01F048
:102EF00079F94046FFF7E2FE48469FE7111CFFF7CD
:102F000023FB9BE7039A52680292029803229043A4
:102F10003A1C011910328C4691420CDA039A3BE7B5
:102F200029684B461960686858601B2A5ED82A1CBD
:102F300008330832D3E7534BF21960469A60C11B3D
:102F4000012319435160716840460B401F4377606D
:102F5000FFF7B4FE281C71E74846291CFFF7FCFD6B
:102F6000C3E7291C301CFFF7F7FD52465368351C98
:102F7000039CD34652E70B19039393E76246131958
:102F80003A1CC0181032039090428ADB5046826887
:102F9000C3685646D3609A60221F0836242A53D845
:102FA000331C132A08D9296881606B68C3601B2A07
:102FB0004FD853461033083528681860696859603F
:102FC000AD689D605346DA19039B2E48D91B012337
:102FD00019438260516050464068514603401F4388
:102FE00040464F60FFF76AFE301C27E7A9684B4652
:102FF0009960E868D860242A13D02A1C1033103254
:103000006DE7526803218A43A41807E7AB6850466E
:103010000361E9684161242A0DD053461833103505
:10302000F1E629692A1C196168694B46494618333B
:103030001832486153E72A695346826168695146EC
:103040002033C8611835DEE6301C291CFFF784FDEB
:10305000B8E7A86851460861EB684B61242A08D09C
:10306000534618331035A7E74046FFF727FE0020E8
:10307000E4E62869514688616A6953462033CA618B
:10308000183599E7F800002038B5074C0023051CD7
:10309000081C2360FDF72AFF431C00D038BD2368BD
:1030A000002BFBD02B60F9E71C080020436C10B507
:1030B000041C002B01D0002010BD8021FFF744FA32
:1030C0006064002809D0021C0023002100E0626C2B
:1030D000D1500433802BFAD1EDE701204042EBE7D9
:1030E00070B5051C0C1C161C1F2907D8436C002B3F
:1030F00009D0A4001B1918681E6070BD1623036058
:1031000001204042F9E7FFF7D1FF002801D16B6CA5
:10311000EFE701204042F0E738B5051C0C1E1F2CDC
:1031200020D8436C002B14D08A009A181368002B07
:103130000FD0012B0BD0591C05D00021201C116091
:103140009847002038BD162303600120FAE70020CD
:10315000F8E7281C00F06EF8221C011C281C00F067
:1031600055F8EFE71623036001204042EAE7C04626
:1031700038B5051C0C1E1F2C1CD8436C002B13D01B
:10318000A2009A181368002B0CD0591C08D00320F9
:10319000012B04D00021201C11609847002038BD6D
:1031A0000220FCE70120FAE7FFF780FF002801D1A9
:1031B0006B6CE5E701204042F1E7C04608B5034BE0
:1031C000011C1868FFF7A8FF08BDC04604000020D6
:1031D00008B50A1C0349031C0868191CFFF780FF87
:1031E00008BDC0460400002008B5024B1868FFF770
:1031F0005DFF08BD0400002008B5034B011C1868E2
:10320000FFF7B6FF08BDC0460400002038B5084CE3
:103210000023051C081C111C2360FDF7B1FE431C94
:1032200000D038BD2368002BFBD02B60F9E7C046E7
:103230001C08002008B5FDF7A5FE08BD02780B7834
:1032400001300131002A01D09A42F7D0D01A7047DC
:103250000023C25C0133002AFBD1581E7047C046D0
:10326000F0B54E4657464546E0B49146061C1F1C35
:1032700008980A698B680C1C8046934200DA131C7C
:1032800049460B604322A25C002A01D001330B6047
:103290002268930604D54846036802330360226817
:1032A0000623134220D14846E16800680B1A002B20
:1032B0001ADD192109198A46002506E04846E26808
:1032C00000680135131AAB420DDD301C391C524623
:1032D0000123C0470130F1D1012040421CBC90467F
:1032E0009946A246F0BD22684323E35C591E8B41F8
:1032F000910626D4221C301C391C4332C0470130B1
:10330000EAD04B4620681A68062303400020E16893
:103310008146042B26D0A26823699A421DDC1A3408
:103320004946A2460024002903DC19E001344C453B
:1033300016D0301C391C52460123C0470130F5D14C
:10334000CAE7E11840313020C8705A1C4521615C41
:10335000A21840320233D170CCE7D31A9944DEE789
:103360000020BBE78A1AD343DB171A409146D2E705
:10337000F0B5444656464D465F46F0B40C1C9A469E
:10338000237E87B0433191468046109A03916E2B7D
:1033900054D015D8632B00D1D0E000D9BAE0002B6F
:1033A00059D0582B00D0EDE0452163548C49236857
:1033B0008B4619061AD51168081D10600D681BE0B0
:1033C000732B00D1CFE000D97FE06F2B00D1E0E07C
:1033D000702B00D0D6E0216820230B4323604521C9
:1033E000782060547F498B461906E4D45906E2D50B
:1033F0001168081D0D881060DA0702D520221343DA
:1034000023601027002D03D12168202399432160D8
:1034100000224323E2546368A360002B5BDB216836
:10342000042291432160002D58D1039E002B54D1DA
:10343000082F64D003998B1B23610FE023681906C2
:1034400000D589E0590600D486E01368191D116083
:103450001B6862691A800023039E23615346009310
:103460004046211C05AA4B46FFF7FAFE01301FD04B
:1034700040464946321C2369D047013018D02168A4
:10348000E068059B89071CD5C21A002A19DD261C95
:103490001936002505E0E068059B0135C21AAA42ED
:1034A0000FDD40464946321C0123D0470130F2D19E
:1034B0000120404207B03CBC90469946A246AB462C
:1034C000F0BD9842F6DA181CF4E7752B61D0782B22
:1034D00058D1236883E7002D00D10025039E281CC6
:1034E000391CFEF76BF85A46535C013E281C3370BA
:1034F000391CFEF71FF8051EF1D1082F9AD1236859
:10350000DB0797D561682269914293DC013E302345
:1035100033708FE7642B01D0692B33D123681906F0
:1035200001D459064CD41368191D1B6811601D1C69
:10353000002B4CDB2A4B0A279B466CE71368261CA2
:10354000191D11601A684223E25401234236236197
:1035500000224323E25481E71368191D11601B68A0
:1035600062691A6077E71368191D11601E68301CC4
:10357000FFF76EFE63682061984201D92361181C31
:103580006060E5E74222A354261C012342362361F2
:10359000DEE72368190601D459060CD41368191DF7
:1035A0001D6811600E4A237E934608276F2B00D1B9
:1035B0002EE70A272CE71368191D11601D88F1E713
:1035C0001368191D116000229D5E2B1CB0E7432378
:1035D0002D22E254024B6D429B460A271BE7C04650
:1035E000604E0000744E0000936810B5013B93607C
:1035F000002B06DB1368581C1060FF201970084070
:1036000010BD9469A34202DBCBB20A2BF2D100F0C9
:10361000D3F9F5E7F0B5474698464B6E80B4061CE3
:103620000D1C171C9B0414D4434600220024002BBD
:1036300007D1002004BC9046F0BD0134221E424553
:10364000F7D0B95C301C2A1CFFF7CEFF431CF4D125
:10365000F0E743469B08984600240022002BE8D060
:103660009200D159301C2A1C00F0DCFC431CE1D034
:103670000134221E4245DCD09200D159301C2A1C54
:1036800000F0D0FC431CF3D1D4E7C046F0B59368FA
:103690004E4645465746E0B480460E1C9146002BE8
:1036A0002DD0496E89042DD5126892465246526833
:1036B000514697080C680025002F04DC15E0013501
:1036C0000434AF420FD0321C4046216800F0AAFCFF
:1036D000421CF4D100234A46936053601CBC9046C0
:1036E0009946A246F0BD49468B68BF00DB1B4A469F
:1036F000082193608A44002BD8D10020EAE7536068
:103700000020EBE7311CFEF76FFDE3E7F0B55F4605
:1037100056464D464446F0B49FB004908B46171C65
:103720000593002803D08269002A00D109E1934B58
:103730009B4500D10BE1924B9B4500D10BE1914B96
:103740009B4500D10BE159468B891A0700D4ECE068
:103750000B69002B00D1E8E006AD00236B618A49BC
:1037600020236B76894E3023AB7689463B783C1C10
:10377000002B0DD0252B02D10AE0252B70D001346F
:103780002378002BF9D1E21B9046414600296CD1E9
:103790002378002B78D00122524200236A60432212
:1037A00001342B60EB60AB60AB54AB65012707E0E5
:1037B000801B3B1C29688340181C08432860013487
:1037C0002178301C0522FFF743F90028F0D12B683F
:1037D000221CD90602D5202043216854190702D59E
:1037E0002B204321685421782A2900D16FE00B1C3B
:1037F000303B092B0BD8EA68910001348A182178F4
:1038000052009A180B1C303B092BF5D9EA602E297F
:1038100046D048460322FFF71BF9002808D04A4645
:10382000801A40238340181C2B68013418432860F9
:10383000217857480622671C2976FFF709F90028E6
:1038400060D0544B002B00D08DE0059B072207333E
:103850009343083305936A69131C53446B6185E7EE
:10386000E31B98464146002992D0049859463A1CD9
:103870004346FFF7CFFE013006D06A69131C43446C
:103880006B612378002B86D159468B895A0649D41F
:1038900068691FB03CBC90469946A246AB46F0BD55
:1038A00061782A291DD000236B600B1C303B01344A
:1038B000092BAED80022910001348A1821785200D9
:1038C0009A180B1C303B092BF5D96A60A1E70599C2
:1038D000081D0968059000290EDBE9600134517864
:1038E00095E7059BA01C1A1D1B6805926B60002BB9
:1038F00023DBA178041C8CE74942E96002210B43D9
:103900002B60EBE705AB00930498291C5A46224B29
:10391000FFF72EFD8246514601319CD159468B89D5
:103920005A06B5D501204042B3E70498594600F045
:10393000D7F8002800D10FE7F4E701235B426B6062
:10394000D7E700F07BFA0D4B9B4500D0F3E60499D6
:103950004B689B46F7E6049B9A689346F3E6049A05
:10396000D1688B46EFE605AB00930498291C5A46B4
:10397000094B00E000BF8246CDE7C046DC4E0000A8
:10398000BC4E00009C4E0000904E0000884E00008F
:10399000944E0000000000001536000038B5131CDE
:1039A000044A051C0C1C1068291C221CFFF7AEFEE3
:1039B00038BDC0460400002070B5051C0E1C141C48
:1039C000002802D08169002953D0314B9C4255D048
:1039D000304B9C4254D0304B9C4253D0A269A260E1
:1039E000A28993B219073AD52069002837D0FF2160
:1039F0000E40802189010B4215D023686169181A95
:103A000088421BDA0130A268013AA2605A1C226087
:103A10001E70626982421AD0A389301CD90701D571
:103A20000A2E14D070BD0A43A2811C4B626E6169DC
:103A3000134063662368181A8842E3DB281C211CA4
:103A400000F078F900281FD123680120DBE7281C4B
:103A5000211C00F06FF9002816D1301CE2E7281C69
:103A6000211C00F03DF800280ED1A289206993B2F4
:103A7000BDE700F0E3F9064B9C42A9D16C68ADE7C5
:103A8000AC68ABE7EC68A9E701204042CAE7C04652
:103A9000DC4E0000BC4E00009C4E0000FFDFFFFF2C
:103AA00008B50A1C0349031C0868191CFFF784FFAA
:103AB00008BDC0460400002070B5084C061C002557
:103AC000081C111C1A1C2560FDF73CFA431C00D091
:103AD00070BD2368002BFBD03360F9E71C08002081
:103AE0003B4B70B51D68061C0C1C002D02D0A8694C
:103AF000002844D0374B9C4247D0374B9C425AD089
:103B0000364B9C4259D0A589ABB219070DD5226915
:103B1000002A15D0D90721D560690023A36043424C
:103B2000A3610020002A21D070BDDA0647D55807CE
:103B30002DD4226908231D43A581ABB2002AE9D107
:103B4000A02080008021184089008842E2D0301CEB
:103B5000211C00F0A3FCA3892269DBE70021980760
:103B600000D46169A1600020002ADDD1A389190673
:103B7000DAD5402213430120A3814042D4E7281C18
:103B800000F05CF9134B9C42B7D16C68BBE7616BEA
:103B9000002909D0231C4433994203D0301C00F083
:103BA00021FBA58900236363242322699D4300230D
:103BB00063602260BEE7AC68A5E7EC68A3E7092371
:103BC000336040231D430120A5814042ACE7C0463D
:103BD00004000020DC4E0000BC4E00009C4E0000A3
:103BE000F0B5474680B48B8980469AB20D1C110708
:103BF0003CD48022120113436A68AB81002A56DD4F
:103C0000EC6A002C2ED0414600229BB20E680A605E
:103C1000DA0450D56A6D5F0706D569686B6B521A76
:103C2000002B01D02F6CD21B296A40460023A047ED
:103C3000411C4BD0AA893E4B296913400022AB811D
:103C40006A602960DA044ED4696B43461E6000291D
:103C500008D02B1C4433994202D0404600F0C2FAEF
:103C600000236B63002004BC9046F0BD2E69002E3B
:103C7000F8D02F680023BC1B2E60910700D16B6920
:103C8000AB60002C04DCEDE73618241A002CE9DDCB
:103C90004046296A321C231CAF6AB8470028F3DC6F
:103CA000AA89402313430120AB814042DBE72F6CFC
:103CB000002FA5DCD6E700224046296A0123A04751
:103CC000021C431C1ED0AB89EC6AA4E74246136871
:103CD000002B0AD1A989164A2F690A40AA816B6074
:103CE0002F60D104B0D56865AEE71D2B01D0162B2F
:103CF00019D1AA890E4B1340AB8100236B602B694D
:103D00002B60A1E747463B68002BDCD01D2B06D07B
:103D1000162B04D0A98940230B43AB81A3E741466E
:103D20000E6000209FE7AA8940231343AB819AE7E6
:103D3000FFF7FFFF0A6938B5051C0C1C002A11D0DB
:103D4000002802D08369002B13D00F4B9C4215D062
:103D50000E4B9C4214D00E4B9C4213D00C22A35EFF
:103D6000002B01D1002038BD281C211CFFF738FF93
:103D7000F9E700F063F8044B9C42E9D16C68EDE789
:103D8000AC68EBE7EC68E9E7DC4E0000BC4E0000F5
:103D90009C4E000008B5011E04D0054B1868FFF7C3
:103DA000C9FF08BD034B0449186800F005FBF8E79C
:103DB00004000020584E0000353D000000207047F0
:103DC00000207047F8B5061CD836071C002E14D00A
:103DD0007568B468013D0DD4A389012B07D90E2263
:103DE000A35E013303D0381C211CFFF7A3FF683406
:103DF000013DF1D23668002EEAD1F8BD70B54B1EF8
:103E000068255D430E1C291C7431FEF79DFB041EC2
:103E100009D00023036046602A1C0C30A060683281
:103E20000021FEF7EBFE201C70BDC04608B5024B1A
:103E30001868FFF7C7FF08BD584E0000F0B54D46A3
:103E40005F4656464446F0B4836983B0051C002B98
:103E50006CD13B4A8262D8228350DC228350E0221C
:103E60008350384B1B68984267D0281C00F074F8C8
:103E70006860281C00F070F8A860281C00F06CF83E
:103E80006E680024E8600423301CB38134607460E1
:103E9000B4607466F48134617461B46100210822F5
:103EA0005C30FEF7ABFE284B284F9A467362284BD6
:103EB00036629946B362274B3763F362AE68984621
:103EC0000923B381301C0123F38134607460B46032
:103ED000746634617461B461002108225C309B46D1
:103EE000FEF78CFE534673624B46B3624346F36261
:103EF00036623763EE681223B381301C0223F381EC
:103F000034607460B460746634617461B4615C3050
:103F100000210822FEF772FE534673624B46B362DD
:103F20004346F3625B4636623763AB6103B03CBC29
:103F300090469946A246AB46F0BD0123836194E7C3
:103F4000C53D0000584E00007D4500000D460000B4
:103F5000A9450000E1450000214B70B51D68061C15
:103F6000A96900292AD0D8356B68AC68013B03D514
:103F70001FE06834013B1CD30C21625E002AF8D19B
:103F800001235B420025E381201C0123A381656698
:103F90002560A560656025616561A5615C300021D3
:103FA0000822FEF72BFE6563A563A564E564201C6B
:103FB00070BD2B68002B05D01D1CD5E7281CFFF712
:103FC0003DFFD0E7301C0421FFF718FF28600028D0
:103FD00001D0051CC8E70C2333600020E8E7C04689
:103FE000584E00007047C0467047C0467047C046F4
:103FF0007047C04608B5034B0349186800F0BAF98A
:1040000008BDC04604000020BD3D000008B5034BBC
:104010000349186800F0AEF908BDC046040000204E
:10402000C13D0000F0B557464E46C0B4141C802375
:1040300092899B0183B0824689461A4204D11A4371
:10404000A281626E1343636600F002FA01283FD03A
:1040500001AE231C5046311C4A465C3300F0DCFAAA
:10406000071C421C1ED000283CD03178002508E0F7
:10407000226811702368013323600135BD4231D2BB
:10408000715DA368013BA360002BF1DAA269934242
:1040900011DB2368197023681A780A2AEBD150467D
:1040A0000A2109E0A28940231343A38103B00CBC79
:1040B00091469A46F0BD5046221CFFF77DFC431CFA
:1040C0005A425341DBB2002BD7D001204042EDE7EA
:1040D0004B46013BFE2BBBD84B46D9B201AE3170EB
:1040E0000127C3E74846E1E7124B70B51D68061C7F
:1040F0000C1C002D02D0AB69002B0ED00E4B9C4245
:1041000011D00E4B9C4212D00D4B9C420DD0281C5E
:10411000311C221CFFF786FF70BD281CFFF78EFEA6
:10412000054B9C42EDD16C68F1E7EC68EFE7AC68B9
:10413000EDE7C04604000020DC4E0000BC4E00004D
:104140009C4E0000F8B50F1C041CFEF7B5FD204D79
:10415000204AAB685E6803239E43F71BBF183F0BE2
:104160001D4B013F3F039F4207DD201C0021FEF74E
:104170008BFFAA689319984204D0201CFEF79EFD7D
:104180000020F8BD7942201CFEF77EFF01300DD0E3
:10419000AB68F61B012216435E60104B201C1A68A8
:1041A000D71B1F60FEF78AFD0120EAE7201C0021D3
:1041B000FEF76AFFAB68C21A0F2ADEDD08490968FC
:1041C000401A0649086001210A435A60D5E7C046F3
:1041D000F8000020EF0F0000FF0F0000EC070020A8
:1041E00000050020F0B5474680B4051C0C1E55D0D4
:1041F000FEF762FD211C083948680127031CBB43F8
:10420000CA185468804603208443201C534CA66877
:10421000964260D00026B4464646506037420AD1E6
:104220000E68271C891B9B198E680837BE426BD00D
:10423000CF68F760BE601618766801273E4207D146
:104240001B18604600282CD09068D268C26090602D
:104250000122181C104366464860CB50002E1AD12C
:104260003F48834229D95A0A042A50D89E09383631
:10427000700080002018826882424ED00326546865
:10428000B443A34202D292689042F8D1D368CB6083
:104290008A609960D160281CFEF710FD04BC90462E
:1042A000F0BD90682F4EB042CFD11F43C1608160F6
:1042B000C86088604F60CB50EDE7DB089810824003
:1042C0006068DB0002436260E418A368CC608B6026
:1042D000A160D960DFE7C3184046074206D10A68EB
:1042E000891A88689B18CA68C260906001221A43C4
:1042F0004A601D4AA16012689342CCD31B4B281C14
:104300001968FFF71FFFC6E70126B44693E7142A92
:104310000CD8161C5B367000ABE7B6100123B34017
:104320001E1C63681E436660131CB0E7542A03D842
:104330001E0B6E3670009CE7AA204000824203D814
:10434000DE0B7736700094E70948824203D89E0C52
:104350007C3670008DE7FC207E268AE7F80000207E
:10436000FF0100000001002004050020E8070020F4
:1043700054050000F0B5474680B4071CD83788467E
:104380000026002F13D07D68BC68013D0CD4A389A2
:10439000012B06D90E22A35E013302D0201CC04798
:1043A00006436834013DF2D23F68002FEBD1301C48
:1043B00004BC9046F0BDC046F8B54F464646C0B472
:1043C000061CD836804689460027002E14D0756812
:1043D000B468013D0DD4A389012B07D90E22A35E39
:1043E000013303D04046211CC84707436834013DD0
:1043F000F1D23668002EEAD1381C0CBC90469946A2
:10440000F8BDC04638B5141E05D0101C0B49FEF788
:1044100015FF002802D10A4D281C38BD084D201C6C
:10442000291CFEF70BFF0028F6D0201C0549FEF7DB
:1044300005FF4342584140422840EEE7FC4E000051
:104440005C4E0000104D0000004870470805002039
:10445000014B186A7047C046080500200148243007
:104460007047C046080500200020704701484430CE
:104470007047C0460805002008B50A1C0349031C04
:104480000868191CFFF7BEFF08BDC04604000020E5
:10449000014844307047C04608050020F0B58B89BC
:1044A00091B09AB2051C0C1C900740D40E20095EF6
:1044B00000291BDB281C01AA00F042F9002813DBAD
:1044C000029AF0231B021340294A9F187A4257414F
:1044D00080221202934234D0A28980231B0113430D
:1044E0008026A381F60009E0A3899AB2402611062E
:1044F00024D5802212011343A3810027281C311CDC
:10450000FEF722F800280CD01A4BAB62A289802358
:104510001343A381206020616661002F1CD111B07C
:10452000F0BDA3899905FAD402221343A381231C69
:1045300047332360236101236361F0E78026F6009F
:10454000D7E70D4BE06A9842C6D1A3898026F600D2
:104550003343A3812665D1E70E22A15E281C00F01B
:1045600003F90028DBD0A28901231343A381D6E7F6
:1045700000E0FFFFC53D0000E145000038B50C1C20
:104580000E25495F00F016F9002803DB626D131851
:10459000636538BDA289024B1340A381F9E7C04689
:1045A000FFEFFFFF00207047F8B50C1C8989051C40
:1045B000171C1E1CCB0506D50E23E15E002202232C
:1045C00000F0E4F8A189054B281C1940A1813A1C90
:1045D0000E23E15E331CFFF76FFAF8BDFFEFFFFF1C
:1045E00038B50C1C0E25495F00F0D0F8A289431C99
:1045F00005D080235B011343A381606538BD024B66
:104600001340A381FAE7C046FFEFFFFF08B50E2372
:10461000C95E00F083F808BDF0B5474680B41E1CA3
:1046200086B0051C0C1C171C104B002913D01A68EF
:104630009046FFF709FF0096031C211C281C3A1C1A
:10464000C047431C03D1002333608A232B6006B08C
:1046500004BC9046F0BD1C68FFF7F6FE0096031CF4
:1046600003A9281C0022A047EBE7C04684050020D0
:10467000F0B5474680B4134B86B01D68041C0F1C70
:10468000161C114B002813D01A689046FFF7DCFE69
:104690000096031C211C281C3A1CC047431C03D154
:1046A000002333608A232B6006B004BC9046F0BD23
:1046B0001C68FFF7C9FE0096031C03A9281C0022F2
:1046C000A047EBE70400002084050020002904D067
:1046D000FF2A04D80A70012070470020FCE78A23D3
:1046E000036001204042F7E7F0B5474680B49846A2
:1046F000094B82B0151C1C68071C0E1CFFF7A4FE9A
:104700004246031C0092381C311C2A1CA04702B0F0
:1047100004BC9046F0BDC0468405002038B5074C67
:104720000023051C081C2360FCF7FCFB431C00D085
:1047300038BD2368002BFBD02B60F9E71C08002054
:1047400038B5084C0023051C081C111C2360FCF71D
:10475000EDFB431C00D038BD2368002BFBD02B6041
:10476000F9E7C0461C08002038B5074C0023051C9B
:10477000081C2360FCF7E0FB431C00D038BD236815
:10478000002BFBD02B60F9E71C08002070B5084C0B
:10479000061C0025081C111C1A1C2560FCF7CEFB0A
:1047A000431C00D070BD2368002BFBD03360F9E7B9
:1047B0001C08002070B5084C061C0025081C111CA4
:1047C0001A1C2560FCF7BCFB431C00D070BD23689D
:1047D000002BFBD03360F9E71C080020F8B5C04679
:1047E000F8BC08BC9E467047F8B5C046F8BC08BC8B
:1047F0009E4670472E2E2F2E2E2F2E2E2F2E2E2FF2
:104800002E2E2F6C69627261726965732F53504945
:104810002F5350492E637070000000007320213D1B
:10482000204E554C4C000000535049436C6173734B
:104830003A3A535049436C61737328534552434F7E
:104840004D2A2900000000000000000000000000C8
:1048500001020000AD010000E1010000F1010000D3
:1048600051020000DD010000000000000A0000000D
:10487000020000001C000000FF00FFFFFFFF0A0015
:10488000000000000B000000020000001C000000FF
:10489000FF00FFFFFFFF0B0000000000080000000A
:1048A000040000001C000000FF00000000001000D9
:1048B0000000000009000000040000001C000000CF
:1048C000FF00010001000900000000000E000000D0
:1048D000040000001C000000FF00040004000E00A3
:1048E000000000000F000000040000001C00000099
:1048F000FF00050005000F0000000000140000008C
:10490000050000001C000000FF0006000600040077
:104910000000000015000000050000001C00000061
:10492000FF0007000700050000000000060000006F
:10493000040000001C000000FF0000010001040052
:104940000000000007000000040000001C00000040
:10495000FF0001010101050000000000120000003D
:10496000040000001C000000FF0000030003020020
:104970000000000010000000040000001C00000007
:10498000FF00000200020000000000001300000011
:10499000040000001C000000FF00010301030300ED
:1049A0000000000011000000040000000C000000E6
:1049B000FF000102FFFF0100FF00000000000000F7
:1049C000FF00000000000000FF00FFFFFFFFFF00EE
:1049D00000000000030000000100000002000000D1
:1049E000FF00FFFFFFFFFF000000000016000000B7
:1049F0000200000004000000FF00FFFFFFFF0600B0
:104A00000000000017000000020000000400000089
:104A1000FF00FFFFFFFF0700000000000C00000088
:104A20000300000004000000FF00FFFFFFFF0C0078
:104A3000FF00000000000000FF0000000000000078
:104A4000FF00FFFFFFFFFF00010000000B00000060
:104A50000300000004000000FF00FFFFFFFF0B0049
:104A6000010000000A000000030000000400000034
:104A7000FF00FFFFFFFF0A00FF0000000000000032
:104A8000FF00000000000000FF00FFFFFFFFFF002D
:104A9000FF00000000000000FF0000000000000018
:104AA000FF00FFFFFFFFFF0000000000020000000A
:104AB00001000000020000000000FFFFFFFF0200F5
:104AC00001000000080000000100000002000000DA
:104AD0000200FFFFFFFF08000100000009000000C6
:104AE00001000000020000000300FFFFFFFF0900BB
:104AF00000000000040000000100000002000000AF
:104B00000400FFFFFFFF040000000000050000009C
:104B100001000000020000000500FFFFFFFF05008C
:104B20000000000002000000010000000200000080
:104B30000A00FFFFFFFF0200010000000300000069
:104B40000B00000004000000FF00FFFFFFFFFF005C
:104B5000000000001B0000000B000000040000002B
:104B6000FF00FFFFFFFFFF00000000001C0000002F
:104B70000600000000000000FF00FFFFFFFFFF0035
:104B80000000000018000000060000000000000007
:104B9000FF00FFFFFFFFFF00000000001900000002
:104BA0000600000000000000FF00FFFFFFFFFF0005
:104BB00001000000160000000300000000000000DB
:104BC000FF00FFFFFFFFFF000100000017000000D3
:104BD0000300000000000000FF00FFFFFFFFFF00D8
:104BE00000000000160000000200000000000000AD
:104BF000FF00FFFFFFFFFF000000000017000000A4
:104C00000200000000000000FF00FFFFFFFFFF00A8
:104C1000000000001300000002000000000000007F
:104C2000FF00FFFFFFFFFF0000000000100000007A
:104C30000200000000000000FF00FFFFFFFFFF0078
:104C40000000000012000000020000000000000050
:104C5000FF00FFFFFFFFFF00000000001100000049
:104C60000200000000000000FF00FFFFFFFFFF0048
:104C7000000000000D000000040000000C00000017
:104C8000FF000500FFFF0D00000000001500000000
:104C9000050000000C000000FF000700FFFFFF0000
:104CA0000000000006000000040000000C000000EE
:104CB000FF000001FFFFFF000000000007000000F0
:104CC000040000000C000000FF000101FFFFFF00D6
:104CD00000000000020000000100000002000000CF
:104CE0001400FFFFFFFF02000000000000000000B2
:104CF000AD0500000000000045786974696E67200A
:104D000077697468207374617475732025642E0A42
:104D10000000000000000000000000000000000093
:104D2000ED0F000081060000BD0F0000DD0F000048
:104D3000CD0F0000AD0F000055110000910F0000D5
:104D40008D0F00000000000084130000B613000067
:104D5000B6130000B6130000B6130000B61300002F
:104D6000B6130000B6130000B61300008A1300004B
:104D70008A1300008A1300008A13000057697265C5
:104D800020696E697400000054656D70657261740D
:104D9000757265203A2000000E180000C21700004E
:104DA000EE1700004A170000EE170000E61700009B
:104DB000EE1700004A170000C2170000C2170000DB
:104DC000E61700004A1700004217000042170000D3
:104DD00042170000F4170000361A0000301A0000D5
:104DE000301A0000261A00008819000088190000F7
:104DF0001E1A0000261A0000881900001E1A000062
:104E000088190000261A0000861900008619000083
:104E100086190000BE1A00002C2066756E63746946
:104E20006F6E3A2000000000617373657274696FE1
:104E30006E2022257322206661696C65643A2066C3
:104E4000696C6520222573222C206C696E652025F3
:104E500064257325730A0000080000204300000049
:104E600030313233343536373839414243444546A0
:104E70000000000030313233343536373839616262
:104E80006364656600000000232D302B20000000C5
:104E9000686C4C00656667454647000000000000EE
:104EA0000000000000000000000000000000000002
:104EB00000000000000000000000000000000000F2
:104EC00000000000000000000000000000000000E2
:104ED00000000000000000000000000000000000D2
:104EE00000000000000000000000000000000000C2
:104EF000000000000000000000000000504F534977
:0C4F0000580000002E000000000000001F
:104F0C0040420F000800002000000000DC4E0000B2
:104F1C00BC4E00009C4E0000000000000000000091
:104F2C0000000000000000005C4E000000000000CB
:104F3C000000000000000000000000000000000065
:104F4C000000000000000000000000000000000055
:104F5C000000000000000000000000000000000045
:104F6C000000000000000000000000000000000035
:104F7C000000000000000000000000000000000025
:104F8C000000000000000000000000000000000015
:104F9C000000000000000000000000000000000005
:104FAC0000000000000000000000000000000000F5
:104FBC0000000000000000000000000000000000E5
:104FCC0000000000000000000000000000000000D5
:104FDC0000000000000000000000000000000000C5
:104FEC0000000000000000000000000000000000B5
:104FFC0000000000000000000000000000000000A5
:10500C00F8000020F8000020000100200001002022
:10501C0008010020080100201001002010010020D0
:10502C001801002018010020200100202001002080
:10503C002801002028010020300100203001002030
:10504C0038010020380100204001002040010020E0
:10505C004801002048010020500100205001002090
:10506C005801002058010020600100206001002040
:10507C0068010020680100207001002070010020F0
:10508C0078010020780100208001002080010020A0
:10509C008801002088010020900100209001002050
:1050AC009801002098010020A0010020A001002000
:1050BC00A8010020A8010020B0010020B0010020B0
:1050CC00B8010020B8010020C0010020C001002060
:1050DC00C8010020C8010020D0010020D001002010
:1050EC00D8010020D8010020E0010020E0010020C0
:1050FC00E8010020E8010020F0010020F001002070
:10510C00F8010020F801002000020020000200201D
:10511C0008020020080200201002002010020020CB
:10512C00180200201802002020020020200200207B
:10513C00280200202802002030020020300200202B
:10514C0038020020380200204002002040020020DB
:10515C00480200204802002050020020500200208B
:10516C00580200205802002060020020600200203B
:10517C0068020020680200207002002070020020EB
:10518C00780200207802002080020020800200209B
:10519C00880200208802002090020020900200204B
:1051AC009802002098020020A0020020A0020020FB
:1051BC00A8020020A8020020B0020020B0020020AB
:1051CC00B8020020B8020020C0020020C00200205B
:1051DC00C8020020C8020020D0020020D00200200B
:1051EC00D8020020D8020020E0020020E0020020BB
:1051FC00E8020020E8020020F0020020F00200206B
:10520C00F8020020F8020020000300200003002018
:10521C0008030020080300201003002010030020C6
:10522C001803002018030020200300202003002076
:10523C002803002028030020300300203003002026
:10524C0038030020380300204003002040030020D6
:10525C004803002048030020500300205003002086
:10526C005803002058030020600300206003002036
:10527C0068030020680300207003002070030020E6
:10528C007803002078030020800300208003002096
:10529C008803002088030020900300209003002046
:1052AC009803002098030020A0030020A0030020F6
:1052BC00A8030020A8030020B0030020B0030020A6
:1052CC00B8030020B8030020C0030020C003002056
:1052DC00C8030020C8030020D0030020D003002006
:1052EC00D8030020D8030020E0030020E0030020B6
:1052FC00E8030020E8030020F0030020F003002066
:10530C00F8030020F8030020000400200004002013
:10531C0008040020080400201004002010040020C1
:10532C001804002018040020200400202004002071
:10533C002804002028040020300400203004002021
:10534C0038040020380400204004002040040020D1
:10535C004804002048040020500400205004002081
:10536C005804002058040020600400206004002031
:10537C0068040020680400207004002070040020E1
:10538C007804002078040020800400208004002091
:10539C008804002088040020900400209004002041
:1053AC009804002098040020A0040020A0040020F1
:1053BC00A8040020A8040020B0040020B0040020A1
:1053CC00B8040020B8040020C0040020C004002051
:1053DC00C8040020C8040020D0040020D004002001
:1053EC00D8040020D8040020E0040020E0040020B1
:1053FC00E8040020E8040020F0040020F004002061
:10540C00FFFFFFFF00000200415343494900000029
:10541C000000000000000000000000000000000080
:10542C00000000000000000001000000415343494F
:10543C004900000000000000000000000000000017
:10544C00000000000000000000000000044F0000FD
:10545C00104D0000104D0000104D0000104D0000CC
:10546C00104D0000104D0000104D0000104D0000BC
:10547C00104D0000FFFFFFFFFFFFFFFFFFFFFFFFCF
:10548C00FFFF0000CD460000310100009501000037
:10549C00D9040000F1040000210600000501000001
:0454AC0000000000FC
:0400000300000E519A
:00000001FF
