:10000000FC7F00204D060000D5050000D90500004A
:1000100000000000000000000000000000000000E0
:10002000000000000000000000000000DD050000EE
:100030000000000000000000E1050000E5050000F0
:1000400010B5064C2378002B07D1054B002B02D0AE
:10005000044800E000BF0123237010BD5C000020B5
:10006000000000002C18000008B5084B002B03D03E
:100070000748084900E000BF07480368002B03D089
:10008000064B002B00D0984708BDC046000000007A
:100090002C18000060000020580000200000000024
:1000A00010B5C3699C07FCD403680224A343036012
:1000B000C46901231C42FBD1046823430360036825
:1000C000DC07FCD4C46901231C42FBD1C469DC40B9
:1000D0001C42F7D1084B1A430260C3695A07FCD48B
:1000E000C0239B0243608181C3699C07FCD40368E1
:1000F00002221343036010BD04000040037EDA07B0
:10010000FCD5018570470000027E01235107FBD515
:10011000428B1A4207D1428BDA401A4203D1428BFA
:1001200092081A4202D0034B01221A70008DC0B20D
:100130007047C0467800002070B50368041C988B97
:100140001A1C0821FF32084228D0988B174D014312
:10015000802099839872112353704021144B917120
:1001600050715E68C0202E40800506435E605E6967
:100170003540284358610F4818600F4818615D6882
:100180000E4828408025AD02284358605868800BEF
:100190008003586000235171237105E0137ADA0659
:1001A00002D5201C00F0F8FA207970BDFFFFFF8F08
:1001B000900100209000002010010020FF3F00F07F
:1001C000002303714371044B016083600B780222AA
:1001D00013430B707047C0463901000038B5364BE9
:1001E0002021DA6901200A43DA61344B06241A78A7
:1001F00002431A70324B0F22197891431970197803
:10020000214319702F490C782043087019780A404F
:100210001A701A7860210A431A702B4B2B4A5A80A5
:100220005A7852B2002AFBDB294B01211A780A4383
:100230001A709A78D107FCD426480268510B1F2205
:100240001140914200D1052111408C011D8D2249A0
:100250002940214319850468A10C0A401F2A00D1B6
:100260001D221C8D1F210A408C4322431A850268DF
:100270000721D20D0A408A4200D103220A40188D7C
:100280001103164A02400A431A8519787F220A4050
:100290001A701A78042112480A431A7058621A898F
:1002A0000C218A431A811A8901218A431A8100216B
:1002B000802201F050F938BD00040040584400414C
:1002C0003C44004159440041000C004006400000FD
:1002D00000500041246080003FF8FFFFFF8FFFFFC8
:1002E00090010020F7B5141C234A5F0101971D1CE3
:1002F000D319061C5869271C4000400F03301033E7
:10030000C74006D00F1C8022596812060A435A6063
:1003100009E02F1C7B1E9F41184BBF01FF18381CA2
:10032000221C01F00FF90199134808354218176192
:10033000131C5269A104920B890C92030A435A615F
:1003400059690F4A02200A405A616B01F318D979A2
:10035000032211400143D8799043021C0A43DA7109
:100360005979802252420A435A716B01F318DB79A2
:100370009A07FAD5201CFEBD900100201001002034
:10038000FF3F00F0F8B51E4E041C3378151C002BFF
:1003900012D11C4B1C4A1A645A6C920B92035A6479
:1003A000586C1A4A02405A64A2235B00E25C402067
:1003B0000243E254012333704827FF37E25D0123F3
:1003C00013401AD00F4B5A6C9204920CAA4202D2DC
:1003D0005D6CAD04AD0C081C2A1C0B4901F0B2F891
:1003E000E25D03231A4001210A43E15D99430B1C9E
:1003F0001343E3550023337000E01D1C281CF8BD97
:100400007900002090010020D0000020FF3F00F084
:10041000FF30827930239A43131C2022002900D117
:1004200010221343837170470C4BFF305A6902212D
:10043000920B92035A61027A03231A400A43017A0B
:1004400099430B1C13430372827980235B4213434D
:100450008371037A9A07FCD57047C046900100204B
:1004600080235B421943C9B28172704770B5A023E3
:1004700003225B00C254134B134A5C6CC02114402E
:1004800089050C4346255C64FF35402444550F4DD7
:1004900030261D6490256D0046555D6B154029433F
:1004A000922559636D0080214155094D1D63B0258A
:1004B0006D0044555C6F22405A67B2235B00C15403
:1004C00070BDC04690010020FFFFFF8FD0000020CC
:1004D0005001002030B5364A1E2351680820994348
:1004E00002231943516033498A6902438A613248C1
:1004F000324A9082908A03439382D3689807FCD54E
:100500002F4B012018701878C40704D52C48407868
:1005100040B20028F7DB01209860587840B20028EC
:10052000FBDB284C26484460587840B20028FBDBAF
:1005300082242348E4014480587840B20028FBDB41
:10054000908C8024A0439084D068C506FCD51E4CB6
:100550001A48C462D4681948E506FBD5848C1B4D43
:100560002C438484D4681548E506FBD5848C022589
:100570002C438484D0680406FCD51048C068450626
:10058000F8D5D068C406FCD500229A605A7852B2D9
:10059000002AFBDB0E480A4A50605A7852B2002A01
:1005A000FBDB00230B724B728B72CB7230BDC046EB
:1005B00000400041000400400C060000000800401C
:1005C000000C004001050100B805FF7D040A000091
:1005D000000703000EBEFEE70DBEFEE705BEFEE708
:1005E00002BEFEE7154A164B1178002909D11549BC
:1005F000187809784118C9B2197080201249800210
:10060000C86111780131C9B211701978F02902D886
:100610001978092909D80B4908784042C0B20870F6
:10062000187809784118C9B2197012781B789A4263
:1006300003D18022044B9202DA6170477A000020D5
:100640000100002000000020004400410E4A0F4835
:1006500038B5824204D10E4A0E4B93420ED10AE0C5
:100660000D4C9442F7D00023D1188842F3D9E558B5
:1006700004330D60F8E700F011F804E09342FAD279
:10068000002102C3FAE7FEE7000000205C00002022
:100690009C0300205C0000203018000038B5324B6D
:1006A0000022197801231940304B0AD11868304ACA
:1006B000904201D1196014E01A602E4A013A002AD2
:1006C000FCD11A602C4B1968181C4A1C09D0FF2257
:1006D000134206D181F308889343284A9360436804
:1006E0001847FFF7F7FE62B600F05AFD00F0EEF98A
:1006F000234B802292029A602249234A041C5160B3
:100700001E49C0200D6A00062D022D0A28430862EA
:1007100000219160072111601C4908220A601C49D0
:100720000A60802212059A609A61A368201C98478B
:10073000184B002801D001221A701A78002A05D01F
:10074000002000F04DFA00F0AFFAFCE71B78002B18
:10075000EBD100F099FD0028E7D0012000F040FA2D
:1007600000F0A2FAFCE7C04638040040FC7F0020FD
:100770003581730748E801000020000000ED00E02B
:1007800000440041E703000010E000E0884400411D
:10079000984400417B000020F8B50468051C201C2B
:1007A000FF30037AB64A10210B430372B54F13781A
:1007B000B5493B705378B54E0B7093783380D17840
:1007C000338809020B4333801179B14B1980517979
:1007D0001F8809020F431F809779AE490F80D27995
:1007E0000F8812023A430A8040224271A648A54F60
:1007F00002783878A84F12020243181CBA4200D17E
:1008000099E01EDC802149008A4200D158E107DCD2
:10081000812A6AD0822A6ED0802A00D050E164E01A
:1008200081235B009A4200D1AFE000DA23E1C023CC
:100830009B009A4200D143E1984B9A4200D11AE1C1
:100840003EE190231B019A4242D015DCD023DB000D
:100850009A4222D088231B019A4242D0A023DB0077
:100860009A4200D02CE1201CFFF7DEFD3188286879
:1008700089B2FFF7F5FD27E1894B9A4200D1FAE0F2
:1008800000DC1DE1874B9A4200D1E8E0864B9A429A
:1008900000D015E133886B71EDE033881B0A012B22
:1008A00008D10B8812222868934201D80A8892B294
:1008B0007E49DCE033881B0A022B00D000E10B8864
:1008C00043222868934201D80A8892B27849CEE040
:1008D0003388201C2B71FFF7A7FD201CFFF7C6FDF6
:1008E000F2E0291C01C90122C1E0724900230B80FA
:1008F00028680222BCE06F4900220A801888502232
:1009000010406D4A10701E880F20304018801888E3
:10091000032800D9D4E012781B8808335B01E4185F
:10092000A379002A01D09B0600E0DB06DB0F0B80D9
:10093000286802229BE019887F2291435E4AC9B24F
:10094000117018880F21014019803188002900D0CA
:10095000B6E01988002900D1B2E01988032900D92E
:10096000AEE012781B8808335B01E318002A05D03B
:100970005A7930218A4320210A4304E05A793021F0
:100980008A43102002435A7175E002887F239A43FC
:10099000494BD2B21A7001880F220A400280328875
:1009A000002A00D08CE00288002A00D188E002886A
:1009B000032A00D984E01B78002B27D00388083352
:1009C0005B01E3189B79990655D5038830210833DC
:1009D0005B01E3181A798A4320210A431A710388BC
:1009E00008335B01E318DB795A0644D5038860219C
:1009F00008335B01E318DA798A4340210A43DA714C
:100A00000388022208335B01E31826E003880833D9
:100A10005B01E3189B79DF062DD50388302108336D
:100A20005B01E3181A798A4310210A431A7103887B
:100A300008335B01E318DB7999061CD50388602134
:100A400008335B01E318DA798A4320210A43DA711B
:100A50000388012208335B01E3181A710BE00B884D
:100A600008222868934201D80A8892B213490023C9
:100A7000FFF738FC28E0201CFFF7D6FC24E0C04636
:100A800090000020870000207C0000207E000020D5
:100A90008200002084000020020300000103000007
:100AA00021200000A121000021220000801500006B
:100AB0000400002080000020860000204800002064
:100AC000201C0121FFF7A4FCF8BDC04610B5054B62
:100AD000054C2360FFF782FB201C2168FFF770FBA9
:100AE000201C10BD005000411002002007B5054B2E
:100AF0000122019001A91868131CFFF7F3FB0120E4
:100B00000EBDC0461002002013B5054B6C460734DD
:100B10001868211C0122FFF735FC207816BDC0465D
:100B20001002002010B5074C201CFFF705FB031C2A
:100B30000020834205D022684823FF33D05C012384
:100B4000184010BD1002002010B5054A0C1C031CF3
:100B5000191C10680123221CFFF7C4FB201C10BDC8
:100B60001002002070B5084C061C201C0D1CFFF75D
:100B7000E3FA0023984205D02068311C2A1CFFF7B5
:100B800001FC031C181C70BD10020020F8B50C4CB1
:100B9000051C201C0E1CFFF7CFFA0023271C341C59
:100BA00098420AD0002C07D0291C221C3868FFF775
:100BB000E9FB241A2D18F5E7331C181CF8BDC046B4
:100BC0001002002038B5054C80252D0565610368AD
:100BD000081C111C9847A56138BDC046004400415F
:100BE000012805D1054B064A1A60064B187004E02F
:100BF000002802D1044A014B1A607047800200208D
:100C0000B41500008D0000200016000030B50A1C4D
:100C10001C4985B00978031C00292AD0042A01D177
:100C2000006804E0022A01D1008800E00078520048
:100C300004A98B180B3B9C1AA3420BD00F21014037
:100C4000092902D83025294300E0373119700009FD
:100C5000013BF1E701A930230B7078234B700A2088
:100C60008B1898700D20D870074B043218680C3020
:100C700003E005490868191C0C30FFF7A3FF05B015
:100C800030BDC0468C0000208002002072B6EFF319
:100C90000883044A1360036883F30888436818478D
:100CA0007047C04684020020F0B58FB006A9CE4A36
:100CB0000B1C31CA31C331CA31C311CA11C3CB4B6A
:100CC000CB489A687A255203520F92005258C9496C
:100CD00002609C68A4B262430C60C74900240A60A9
:100CE000C64A1460C64C2570C64DC74C2B680827F1
:100CF000C64E27601B694021301C9847C44AC54B2B
:100D000000211F601060C44A2F1C1660C34A116086
:100D1000C24CBF4E226833689A42E5D2BE4B1B6874
:100D20001A78FF2A00D119E2232A00D0F0E1BC4D45
:100D30002B78002B06D0B34BBA49186802220C302E
:100D4000FFF740FFAE4B1B78532B3DD13368226831
:100D500093421ED9B048013222609A1AB24B016800
:100D60001B6801310160B14D9A4201D22A6000E056
:100D70002B60A2482A680068029000F0E3FB2B6811
:100D800021685A182260A44A1568E9181160A84A17
:100D900013702368013B23609F4B1A68013A1A6065
:100DA000A34BA14A1B7811688B420BD2934C954AF6
:100DB000954D1268206808242C60C91A92699047E2
:100DC00094480460C04691E1522B0CD18B4C964A5A
:100DD00020688025974C3B682D05116865615B692B
:100DE0009847A56182E14F2B05D1844B8E4A1B6841
:100DF00012681A707AE1482B05D1804B8A4A1B6829
:100E000012681A8072E1572B05D17C4B864A1B6809
:100E100012681A606AE16F2B03D1784B01211868C0
:100E200007E0682B08D1754B7F481B6802211B889F
:100E30000360FFF7EBFE59E1772B06D16F4B7A4841
:100E40001B6804211B680360F3E7472B13D1764B23
:100E50001868FFF71BFF784B1B6883F3088862B69E
:100E6000764B1B78002B00D140E1664B06201B68B7
:100E70001B6898473AE1542B04D101232B70614B36
:100E8000186864E04E2B0CD12B78002B06D15D4BFB
:100E90006449186802220C30FFF794FE00232B707F
:100EA00024E1562B57D13868654901220C30FFF7F1
:100EB00089FE3868634903220C30FFF783FE624CD9
:100EC0003868211C01220C30FFF77CFE38685F492E
:100ED0000D220C30FFF776FE3868211C01220C3001
:100EE000FFF770FE4C4E4D4C594900233160236092
:100EF000321C201C13685D1C15601B780393002BAB
:100F000003D0036801330360F4E73E4D226828688C
:100F10000C30FFF757FE28684B490C300122FFF7D1
:100F200051FE03984B49206031603B4A1368581CBE
:100F300010601B78002B04D0384B1A6801321A60FD
:100F4000F3E7286822680C30FFF73CFE28680C3075
:100F500034490222C8E0344A582B17D1244D264C7C
:100F60002D6813682268A90093420AD21F4C5808C2
:100F7000E061394820801D4C207DC507FBD55B18FA
:100F8000F2E7204B354918680C30ACE0592B7BD187
:100F900012681A4B3249002A02D11B680B606EE0BE
:100FA000124C086819686368104D8024A3439208A6
:100FB0006B60002A63D02B4B0C4C23800B4D2B7D98
:100FC000DC07FBD500230A4C24680094A408A34244
:100FD00003D3254C054D2C8048E09342F9D09C006A
:100FE000055901330D51EEE7941500000040004112
:100FF00038020020300200202C0200207C02002059
:101000002802002080020020944400413C0200207D
:1010100020020020984400412402002034020020D5
:101020008C000020F4150000880200208C020020B3
:101030001C02002000440041840200208D0000209A
:10104000D0150000F9150000D21500001C16000094
:10105000D4150000E015000002A5FFFFE91500000F
:101060008800002044A5FFFF04A5FFFF404D2C7D14
:10107000E507FBD59C0009190019D21A99E73D4BE9
:101080003D4918680C302EE05A2B2FD13B4B166887
:101090001C680025A619B44206D02078291C00F04F
:1010A00015F90134051CF6E7324B35491868012261
:1010B0000C30FFF787FD07230F222A40111C2D0952
:1010C0003031092A00DD07311020C0186A468154EA
:1010D000013BF1D2386804A90C300822FFF772FDF9
:1010E000386828490C300322FFF76CFD264B7A2222
:1010F0001A70264B00221A60254B1B7893422DD084
:101100001C4B2449186801220C30FFF75BFD25E0D9
:10111000111C3039C8B21D4B092804D81C682201A3
:10112000114319601AE0111C4139052903D81D68C3
:10113000373A290106E0111C6139052904D81868DD
:10114000573A01010A4308E02C2A03D10B4A1968D7
:10115000116001E00C490A7000221A600E4B1A68F7
:1011600001321A600D4B1A6801321A60D0E5C04690
:101170000040004180020020ED1500007C020020AC
:10118000F1150000F315000028020020880200205D
:101190008C000020F71500003402002024020020FB
:1011A00010B51C4B01201A78022402431A701A4B06
:1011B0000F22197891431970197821431970174932
:1011C0000C782043087019780A401A701A78202188
:1011D0000A431A70124B04211A6A0A431A62114B0D
:1011E000114A5A805A7852B2002AFBDBC4220F48B7
:1011F0000F499203FEF754FF0E4A002313700E4A64
:1012000013700E4A13700E4A13700E4A13700E4A72
:10121000137010BD4A440041354400414B44004125
:1012200000040040000C0040144000000008004290
:1012300004C5000090020020170300209102002046
:1012400094020020180300201503002008B5C1B245
:101250000248FEF753FF012008BDC04600080042C7
:10126000024B187E4007C00F7047C046000800427E
:1012700008B5FFF7F5FF0028FBD00248FEF744FF52
:1012800008BDC0460008004208B5FFF7E9FF00238B
:10129000984205D0FFF7ECFF031C233B5A42534111
:1012A000181C08BD70B5041C0D1C4618B44204D0AF
:1012B0002078FFF7CBFF0134F8E7281C70BD10B58C
:1012C000041CFFF7D5FF2070012010BD0B0A584009
:1012D000034B4000C05A0902484080B27047C046E4
:1012E0002A160000F7B50024051C0F1C261CBC4262
:1012F00020D0FFF7BDFF114BC0B21B780190002B2F
:101300001AD1311CFFF7E2FF0D4B061C1A88002A88
:1013100004D10C4A11782A1C002907D001996A1CB3
:101320002970802F02D11988013919800134A4B2A3
:10133000151CDCE7301C00E00120FEBD1503002079
:101340009202002016030020F0B53E4E85B0002228
:1013500003900C1C32703C4B914201D1012201E000
:101360003A490C801A707F231C4201D080349C4380
:10137000FFF77EFF3378C0B2002B07D00025357011
:10138000FFF776FF3378C0B2AB4236D1432803D0A3
:10139000712853D01528EBD1012300930120FFF7CA
:1013A00055FF0098FFF752FF00998025C843C0B24F
:1013B000FFF74CFF039B00270293244A1388002B5E
:1013C0001DD1214901930978002918D10198FFF70F
:1013D0003DFF391C0198FFF779FF013D071C002DE7
:1013E000EBD1000AC0B2FFF731FFF8B2FFF72EFFD2
:1013F000FFF73EFF3378002B0AD035701FE00299CB
:10140000013B09781380029B019101330293DDE7D0
:10141000C0B2062807D1009B03990133DBB28031AB
:101420000093803C0391002CB8D10420FFF70EFFFD
:10143000FFF71EFF044B01251C7000E00025281C4F
:1014400005B0F0BD15030020160300209202002015
:10145000F0B5384C87B0002301902370994201D138
:10146000012301E0344A1180344A6426137043207A
:10147000FFF7ECFE324FFFF7F3FE002803D1002FF9
:1014800003D0013FF7E7002F03D1013E002EEED13C
:101490004DE00125FFF7ECFE2378002B38D1C0B2D8
:1014A0000290012805D004283DD10620FFF7CEFE8A
:1014B00039E005AE0221301CFFF714FF01988021AE
:1014C000FFF710FF23780390002B18D1FFF7D0FE11
:1014D0000702FFF7CDFEBFB223783F18BFB2012B42
:1014E0000DD0039B9F4207D13378AB4204D1EB432D
:1014F0007278DBB29A4204D01820FFF7A7FE0023CF
:1015000003E00620FFF7A2FE029B2278002A02D009
:10151000002626700BE0012B05D1019A6B1C80324E
:10152000DDB20192B6E7054A002313700126301C94
:1015300007B0F0BD15030020920200201603002022
:1015400000350C0010B50023934203D0CC5CC4548A
:101550000133F9E710BD031C8218934202D01970C1
:101560000133FAE770470000F8B5C046F8BC08BC84
:101570009E467047F8B5C046F8BC08BC9E4670470A
:10158000120100020200004041234D000002000051
:101590000001000008000000100000002000000012
:1015A0004000000080000000000100000002000078
:1015B000000400004D1200007112000061120000D2
:1015C000A5120000BF1200004913000051140000D2
:1015D000760020004465632020342032303135000D
:1015E00031323A35323A333200580A0D00590A0D79
:1015F000005A00230A0D003E00322E300000000089
:10160000ED0A0000090B0000250B0000490B00004B
:10161000650B0000490B00008D0B00005B417264FC
:1016200075696E6F3A58595A5D00000021104220CA
:1016300063308440A550C660E770088129914AA1B3
:101640006BB18CC1ADD1CEE1EFF13112100273322A
:101650005222B5529442F772D662399318837BB303
:101660005AA3BDD39CC3FFF3DEE3622443342004BA
:101670000114E664C774A44485546AA54BB5288553
:101680000995EEE5CFF5ACC58DD55336722611160A
:101690003006D776F6669556B4465BB77AA71997A3
:1016A0003887DFF7FEE79DD7BCC7C448E558866892
:1016B000A7784008611802282338CCC9EDD98EE9F3
:1016C000AFF9488969990AA92BB9F55AD44AB77A6A
:1016D000966A711A500A333A122AFDDBDCCBBFFB43
:1016E0009EEB799B588B3BBB1AABA66C877CE44C7A
:1016F000C55C222C033C600C411CAEED8FFDECCD93
:10170000CDDD2AAD0BBD688D499D977EB66ED55E49
:10171000F44E133E322E511E700E9FFFBEEFDDDFE2
:10172000FCCF1BBF3AAF599F788F8891A981CAB16E
:10173000EBA10CD12DC14EF16FE18010A100C230A0
:10174000E3200450254046706760B9839893FBA35B
:10175000DAB33DC31CD37FE35EF3B1029012F322F0
:10176000D2323542145277625672EAB5CBA5A895AB
:1017700089856EF54FE52CD50DC5E234C324A01440
:1017800081046674476424540544DBA7FAB799873B
:10179000B8975FE77EF71DC73CD7D326F236910690
:1017A000B01657667676154634564CD96DC90EF983
:1017B0002FE9C899E9898AB9ABA9445865480678E0
:1017C0002768C018E1088238A3287DCB5CDB3FEB9B
:1017D0001EFBF98BD89BBBAB9ABB754A545A376A30
:1017E000167AF10AD01AB32A923A2EFD0FED6CDD6B
:1017F0004DCDAABD8BADE89DC98D267C076C645C80
:10180000454CA23C832CE01CC10C1FEF3EFF5DCF7A
:101810007CDF9BAFBABFD98FF89F176E367E554ECF
:10182000745E932EB23ED10EF01E00000000000048
:101830000114000009024300020100803209040083
:10184000000102020000052400100104240200052A
:10185000240600010524010001070583030800FF99
:1018600009040100020A000000070581024000008F
:10187000070502024000000000C20100000008004D
:0C188000690000004100000000000000B2
:040000030000064DA6
:00000001FF
